Archive member included to satisfy reference by file (symbol)

c:/program files (x86)/atollic/truestudio for arm 8.0.0/armtools/bin/../lib/gcc/arm-atollic-eabi/6.3.1/../../../../arm-atollic-eabi/lib/armv7e-m/fpu\libc_nano.a(lib_a-init.o)
                              src\startup_stm32f429x.o (__libc_init_array)
c:/program files (x86)/atollic/truestudio for arm 8.0.0/armtools/bin/../lib/gcc/arm-atollic-eabi/6.3.1/../../../../arm-atollic-eabi/lib/armv7e-m/fpu\libc_nano.a(lib_a-malloc.o)
                              src\TASK_MANAGER\taskmanager.o (malloc)
c:/program files (x86)/atollic/truestudio for arm 8.0.0/armtools/bin/../lib/gcc/arm-atollic-eabi/6.3.1/../../../../arm-atollic-eabi/lib/armv7e-m/fpu\libc_nano.a(lib_a-nano-freer.o)
                              c:/program files (x86)/atollic/truestudio for arm 8.0.0/armtools/bin/../lib/gcc/arm-atollic-eabi/6.3.1/../../../../arm-atollic-eabi/lib/armv7e-m/fpu\libc_nano.a(lib_a-malloc.o) (_free_r)
c:/program files (x86)/atollic/truestudio for arm 8.0.0/armtools/bin/../lib/gcc/arm-atollic-eabi/6.3.1/../../../../arm-atollic-eabi/lib/armv7e-m/fpu\libc_nano.a(lib_a-nano-mallocr.o)
                              c:/program files (x86)/atollic/truestudio for arm 8.0.0/armtools/bin/../lib/gcc/arm-atollic-eabi/6.3.1/../../../../arm-atollic-eabi/lib/armv7e-m/fpu\libc_nano.a(lib_a-malloc.o) (_malloc_r)
c:/program files (x86)/atollic/truestudio for arm 8.0.0/armtools/bin/../lib/gcc/arm-atollic-eabi/6.3.1/../../../../arm-atollic-eabi/lib/armv7e-m/fpu\libc_nano.a(lib_a-sbrkr.o)
                              c:/program files (x86)/atollic/truestudio for arm 8.0.0/armtools/bin/../lib/gcc/arm-atollic-eabi/6.3.1/../../../../arm-atollic-eabi/lib/armv7e-m/fpu\libc_nano.a(lib_a-nano-mallocr.o) (_sbrk_r)
c:/program files (x86)/atollic/truestudio for arm 8.0.0/armtools/bin/../lib/gcc/arm-atollic-eabi/6.3.1/../../../../arm-atollic-eabi/lib/armv7e-m/fpu\libc_nano.a(lib_a-strlen.o)
                              src\tiny_printf.o (strlen)
c:/program files (x86)/atollic/truestudio for arm 8.0.0/armtools/bin/../lib/gcc/arm-atollic-eabi/6.3.1/../../../../arm-atollic-eabi/lib/armv7e-m/fpu\libc_nano.a(lib_a-impure.o)
                              c:/program files (x86)/atollic/truestudio for arm 8.0.0/armtools/bin/../lib/gcc/arm-atollic-eabi/6.3.1/../../../../arm-atollic-eabi/lib/armv7e-m/fpu\libc_nano.a(lib_a-malloc.o) (_impure_ptr)
c:/program files (x86)/atollic/truestudio for arm 8.0.0/armtools/bin/../lib/gcc/arm-atollic-eabi/6.3.1/../../../../arm-atollic-eabi/lib/armv7e-m/fpu\libc_nano.a(lib_a-mlock.o)
                              c:/program files (x86)/atollic/truestudio for arm 8.0.0/armtools/bin/../lib/gcc/arm-atollic-eabi/6.3.1/../../../../arm-atollic-eabi/lib/armv7e-m/fpu\libc_nano.a(lib_a-nano-freer.o) (__malloc_lock)
c:/program files (x86)/atollic/truestudio for arm 8.0.0/armtools/bin/../lib/gcc/arm-atollic-eabi/6.3.1/../../../../arm-atollic-eabi/lib/armv7e-m/fpu\libc_nano.a(lib_a-reent.o)
                              c:/program files (x86)/atollic/truestudio for arm 8.0.0/armtools/bin/../lib/gcc/arm-atollic-eabi/6.3.1/../../../../arm-atollic-eabi/lib/armv7e-m/fpu\libc_nano.a(lib_a-sbrkr.o) (errno)
c:/program files (x86)/atollic/truestudio for arm 8.0.0/armtools/bin/../lib/gcc/arm-atollic-eabi/6.3.1/../../../../arm-atollic-eabi/lib/armv7e-m/fpu\libnosys.a(sbrk.o)
                              c:/program files (x86)/atollic/truestudio for arm 8.0.0/armtools/bin/../lib/gcc/arm-atollic-eabi/6.3.1/../../../../arm-atollic-eabi/lib/armv7e-m/fpu\libc_nano.a(lib_a-sbrkr.o) (_sbrk)
c:/program files (x86)/atollic/truestudio for arm 8.0.0/armtools/bin/../lib/gcc/arm-atollic-eabi/6.3.1/../../../../arm-atollic-eabi/lib/armv7e-m/fpu\libnosys.a(write.o)
                              src\tiny_printf.o (_write)

Allocating common symbols
Common symbol       size              file

errno               0x4               c:/program files (x86)/atollic/truestudio for arm 8.0.0/armtools/bin/../lib/gcc/arm-atollic-eabi/6.3.1/../../../../arm-atollic-eabi/lib/armv7e-m/fpu\libc_nano.a(lib_a-reent.o)
idleTaskHook        0x4               src\TASK_MANAGER\taskmanager.o

Discarded input sections

 .text          0x00000000        0x0 c:/program files (x86)/atollic/truestudio for arm 8.0.0/armtools/bin/../lib/gcc/arm-atollic-eabi/6.3.1/armv7e-m/fpu/crti.o
 .data          0x00000000        0x0 c:/program files (x86)/atollic/truestudio for arm 8.0.0/armtools/bin/../lib/gcc/arm-atollic-eabi/6.3.1/armv7e-m/fpu/crti.o
 .bss           0x00000000        0x0 c:/program files (x86)/atollic/truestudio for arm 8.0.0/armtools/bin/../lib/gcc/arm-atollic-eabi/6.3.1/armv7e-m/fpu/crti.o
 .data          0x00000000        0x4 c:/program files (x86)/atollic/truestudio for arm 8.0.0/armtools/bin/../lib/gcc/arm-atollic-eabi/6.3.1/armv7e-m/fpu/crtbegin.o
 .text          0x00000000        0x0 src\BloedeBleidd_Libraries\ADC\adc.o
 .data          0x00000000        0x0 src\BloedeBleidd_Libraries\ADC\adc.o
 .bss           0x00000000        0x0 src\BloedeBleidd_Libraries\ADC\adc.o
 .debug_line    0x00000000        0x0 src\BloedeBleidd_Libraries\ADC\adc.o
 .debug_str     0x00000000      0x15e src\BloedeBleidd_Libraries\ADC\adc.o
 .comment       0x00000000       0x7d src\BloedeBleidd_Libraries\ADC\adc.o
 .ARM.attributes
                0x00000000       0x39 src\BloedeBleidd_Libraries\ADC\adc.o
 .text          0x00000000        0x0 src\BloedeBleidd_Libraries\DAC\dac.o
 .data          0x00000000        0x0 src\BloedeBleidd_Libraries\DAC\dac.o
 .bss           0x00000000        0x0 src\BloedeBleidd_Libraries\DAC\dac.o
 .debug_line    0x00000000        0x0 src\BloedeBleidd_Libraries\DAC\dac.o
 .debug_str     0x00000000      0x15e src\BloedeBleidd_Libraries\DAC\dac.o
 .comment       0x00000000       0x7d src\BloedeBleidd_Libraries\DAC\dac.o
Memory Configuration

Name             Origin             Length             Attributes
FLASH            0x08000000         0x00200000         xr
RAM              0x20000000         0x00030000         xrw
MEMORY_B1        0x60000000         0x00000000         xr
CCMRAM           0x10000000         0x00010000         rw
*default*        0x00000000         0xffffffff

Linker script and memory map

LOAD c:/program files (x86)/atollic/truestudio for arm 8.0.0/armtools/bin/../lib/gcc/arm-atollic-eabi/6.3.1/armv7e-m/fpu/crti.o
LOAD c:/program files (x86)/atollic/truestudio for arm 8.0.0/armtools/bin/../lib/gcc/arm-atollic-eabi/6.3.1/armv7e-m/fpu/crtbegin.o
LOAD src\BloedeBleidd_Libraries\ADC\adc.o
LOAD src\BloedeBleidd_Libraries\DAC\dac.o
LOAD src\BloedeBleidd_Libraries\DMA\dma.o
LOAD src\BloedeBleidd_Libraries\EXTI\exti.o
LOAD src\BloedeBleidd_Libraries\GPIO\gpio.o
LOAD src\BloedeBleidd_Libraries\I2C\i2c.o
LOAD src\BloedeBleidd_Libraries\RTC\rtc.o
LOAD src\BloedeBleidd_Libraries\SPI\spi.o
LOAD src\BloedeBleidd_Libraries\TIMERS\timers.o
LOAD src\BloedeBleidd_Libraries\USART\usart.o
LOAD src\TASK_MANAGER\taskmanager.o
LOAD src\main.o
LOAD src\startup_stm32f429x.o
LOAD src\system_stm32f4xx.o
LOAD src\tiny_printf.o
                0x00001000                malloc_getpagesize_P = 0x1000
START GROUP
LOAD c:/program files (x86)/atollic/truestudio for arm 8.0.0/armtools/bin/../lib/gcc/arm-atollic-eabi/6.3.1/../../../../arm-atollic-eabi/lib/armv7e-m/fpu\libstdc++_nano.a
LOAD c:/program files (x86)/atollic/truestudio for arm 8.0.0/armtools/bin/../lib/gcc/arm-atollic-eabi/6.3.1/../../../../arm-atollic-eabi/lib/armv7e-m/fpu\libsupc++_nano.a
END GROUP
LOAD c:/program files (x86)/atollic/truestudio for arm 8.0.0/armtools/bin/../lib/gcc/arm-atollic-eabi/6.3.1/../../../../arm-atollic-eabi/lib/armv7e-m/fpu\libstdc++_nano.a
LOAD c:/program files (x86)/atollic/truestudio for arm 8.0.0/armtools/bin/../lib/gcc/arm-atollic-eabi/6.3.1/../../../../arm-atollic-eabi/lib/armv7e-m/fpu\libm.a
LOAD c:/program files (x86)/atollic/truestudio for arm 8.0.0/armtools/bin/../lib/gcc/arm-atollic-eabi/6.3.1/../../../../arm-atollic-eabi/lib/armv7e-m/fpu\libc_nano.a
START GROUP
LOAD c:/program files (x86)/atollic/truestudio for arm 8.0.0/armtools/bin/../lib/gcc/arm-atollic-eabi/6.3.1/armv7e-m/fpu\libgcc.a
LOAD c:/program files (x86)/atollic/truestudio for arm 8.0.0/armtools/bin/../lib/gcc/arm-atollic-eabi/6.3.1/../../../../arm-atollic-eabi/lib/armv7e-m/fpu\libc_nano.a
END GROUP
START GROUP
LOAD c:/program files (x86)/atollic/truestudio for arm 8.0.0/armtools/bin/../lib/gcc/arm-atollic-eabi/6.3.1/armv7e-m/fpu\libgcc.a
LOAD c:/program files (x86)/atollic/truestudio for arm 8.0.0/armtools/bin/../lib/gcc/arm-atollic-eabi/6.3.1/../../../../arm-atollic-eabi/lib/armv7e-m/fpu\libc_nano.a
LOAD c:/program files (x86)/atollic/truestudio for arm 8.0.0/armtools/bin/../lib/gcc/arm-atollic-eabi/6.3.1/../../../../arm-atollic-eabi/lib/armv7e-m/fpu\libnosys.a
END GROUP
START GROUP
LOAD c:/program files (x86)/atollic/truestudio for arm 8.0.0/armtools/bin/../lib/gcc/arm-atollic-eabi/6.3.1/armv7e-m/fpu\libgcc.a
LOAD c:/program files (x86)/atollic/truestudio for arm 8.0.0/armtools/bin/../lib/gcc/arm-atollic-eabi/6.3.1/../../../../arm-atollic-eabi/lib/armv7e-m/fpu\libc_nano.a
LOAD c:/program files (x86)/atollic/truestudio for arm 8.0.0/armtools/bin/../lib/gcc/arm-atollic-eabi/6.3.1/../../../../arm-atollic-eabi/lib/armv7e-m/fpu\libnosys.a
END GROUP
LOAD c:/program files (x86)/atollic/truestudio for arm 8.0.0/armtools/bin/../lib/gcc/arm-atollic-eabi/6.3.1/armv7e-m/fpu/crtend.o
LOAD c:/program files (x86)/atollic/truestudio for arm 8.0.0/armtools/bin/../lib/gcc/arm-atollic-eabi/6.3.1/armv7e-m/fpu/crtn.o
                0x20030000                _estack = 0x20030000
                0x00000000                _Min_Heap_Size = 0x0
                0x00000400                _Min_Stack_Size = 0x400

.isr_vector     0x08000000      0x1ac
                0x08000000                . = ALIGN (0x4)
 *(.isr_vector)
 .isr_vector    0x08000000      0x1ac src\startup_stm32f429x.o
                0x08000000                g_pfnVectors
                0x080001ac                . = ALIGN (0x4)

.text           0x080001ac      0x7e8
                0x080001ac                . = ALIGN (0x4)
 *(.text)
 .text          0x080001ac       0x40 c:/program files (x86)/atollic/truestudio for arm 8.0.0/armtools/bin/../lib/gcc/arm-atollic-eabi/6.3.1/armv7e-m/fpu/crtbegin.o
 *(.text*)
 .text._Z14gpioInitializev
                0x080001ec       0x24 src\BloedeBleidd_Libraries\GPIO\gpio.o
                0x080001ec                gpioInitialize()
 .text._Z20gpioPinConfigurationP12GPIO_TypeDefh8GpioMode
                0x08000210      0x102 src\BloedeBleidd_Libraries\GPIO\gpio.o
                0x08000210                gpioPinConfiguration(GPIO_TypeDef*, unsigned char, GpioMode)
 .text._Z13gpioBitToggleP12GPIO_TypeDefh
                0x08000312       0x2a src\BloedeBleidd_Libraries\GPIO\gpio.o
                0x08000312                gpioBitToggle(GPIO_TypeDef*, unsigned char)
 .text.NVIC_SetPriority
                0x0800033c       0x54 src\TASK_MANAGER\taskmanager.o
 .text.SysTick_Config
                0x08000390       0x44 src\TASK_MANAGER\taskmanager.o
 .text.schedulerInitialize
                0x080003d4       0x7c src\TASK_MANAGER\taskmanager.o
                0x080003d4                schedulerInitialize
 .text.schedulerCreateTask
                0x08000450       0x7c src\TASK_MANAGER\taskmanager.o
                0x08000450                schedulerCreateTask
 .text.schedulerGetTickCounter
                0x080004cc       0x18 src\TASK_MANAGER\taskmanager.o
                0x080004cc                schedulerGetTickCounter
 .text.schedulerStart
                0x080004e4       0x60 src\TASK_MANAGER\taskmanager.o
                0x080004e4                schedulerStart
 .text.schedulerIdleTask
                0x08000544        0xe src\TASK_MANAGER\taskmanager.o
                0x08000544                schedulerIdleTask
 *fill*         0x08000552        0x2 
 .text.schedulerClockInitialize
                0x08000554       0x34 src\TASK_MANAGER\taskmanager.o
                0x08000554                schedulerClockInitialize
 .text.SysTick_Handler
                0x08000588       0x5c src\TASK_MANAGER\taskmanager.o
                0x08000588                SysTick_Handler
 .text._Z11testowyTaskv
                0x080005e4       0x1c src\main.o
                0x080005e4                testowyTask()
 .text._Z9jakiesCosv
                0x08000600       0x28 src\main.o
                0x08000600                jakiesCos()
 .text.main     0x08000628       0x48 src\main.o
                0x08000628                main
 .text.Reset_Handler
                0x08000670       0x50 src\startup_stm32f429x.o
                0x08000670                Reset_Handler
 .text.Default_Handler
                0x080006c0        0x2 src\startup_stm32f429x.o
                0x080006c0                RTC_Alarm_IRQHandler
                0x080006c0                HASH_RNG_IRQHandler
                0x080006c0                EXTI2_IRQHandler
                0x080006c0                TIM8_CC_IRQHandler
                0x080006c0                DebugMon_Handler
                0x080006c0                UART8_IRQHandler
                0x080006c0                SPI4_IRQHandler
                0x080006c0                TIM1_CC_IRQHandler
                0x080006c0                DMA2_Stream5_IRQHandler
                0x080006c0                HardFault_Handler
                0x080006c0                DMA1_Stream5_IRQHandler
                0x080006c0                PVD_IRQHandler
                0x080006c0                SDIO_IRQHandler
                0x080006c0                TAMP_STAMP_IRQHandler
                0x080006c0                PendSV_Handler
                0x080006c0                NMI_Handler
                0x080006c0                CAN2_RX1_IRQHandler
                0x080006c0                EXTI3_IRQHandler
                0x080006c0                TIM8_TRG_COM_TIM14_IRQHandler
                0x080006c0                TIM1_UP_TIM10_IRQHandler
                0x080006c0                TIM8_UP_TIM13_IRQHandler
                0x080006c0                I2C3_ER_IRQHandler
                0x080006c0                EXTI0_IRQHandler
                0x080006c0                I2C2_EV_IRQHandler
                0x080006c0                DMA1_Stream2_IRQHandler
                0x080006c0                CAN1_RX0_IRQHandler
                0x080006c0                FPU_IRQHandler
                0x080006c0                OTG_HS_WKUP_IRQHandler
                0x080006c0                UsageFault_Handler
                0x080006c0                LTDC_ER_IRQHandler
                0x080006c0                CAN2_SCE_IRQHandler
                0x080006c0                DMA2_Stream2_IRQHandler
                0x080006c0                SPI1_IRQHandler
                0x080006c0                TIM6_DAC_IRQHandler
                0x080006c0                TIM1_BRK_TIM9_IRQHandler
                0x080006c0                DCMI_IRQHandler
                0x080006c0                CAN2_RX0_IRQHandler
                0x080006c0                DMA2_Stream3_IRQHandler
                0x080006c0                USART6_IRQHandler
                0x080006c0                USART3_IRQHandler
                0x080006c0                CRYP_IRQHandler
                0x080006c0                CAN1_RX1_IRQHandler
                0x080006c0                UART5_IRQHandler
                0x080006c0                DMA2_Stream0_IRQHandler
                0x080006c0                TIM4_IRQHandler
                0x080006c0                I2C1_EV_IRQHandler
                0x080006c0                DMA1_Stream6_IRQHandler
                0x080006c0                DMA1_Stream1_IRQHandler
                0x080006c0                UART4_IRQHandler
                0x080006c0                TIM3_IRQHandler
                0x080006c0                RCC_IRQHandler
                0x080006c0                TIM8_BRK_TIM12_IRQHandler
                0x080006c0                Default_Handler
                0x080006c0                EXTI15_10_IRQHandler
                0x080006c0                ADC_IRQHandler
                0x080006c0                DMA1_Stream7_IRQHandler
                0x080006c0                SPI5_IRQHandler
                0x080006c0                TIM7_IRQHandler
                0x080006c0                CAN2_TX_IRQHandler
                0x080006c0                TIM5_IRQHandler
                0x080006c0                DMA2_Stream7_IRQHandler
                0x080006c0                I2C3_EV_IRQHandler
                0x080006c0                EXTI9_5_IRQHandler
                0x080006c0                RTC_WKUP_IRQHandler
                0x080006c0                LTDC_IRQHandler
                0x080006c0                ETH_WKUP_IRQHandler
                0x080006c0                SPI2_IRQHandler
                0x080006c0                OTG_HS_EP1_IN_IRQHandler
                0x080006c0                MemManage_Handler
                0x080006c0                DMA1_Stream0_IRQHandler
                0x080006c0                CAN1_TX_IRQHandler
                0x080006c0                SVC_Handler
                0x080006c0                EXTI4_IRQHandler
                0x080006c0                ETH_IRQHandler
                0x080006c0                OTG_HS_EP1_OUT_IRQHandler
                0x080006c0                WWDG_IRQHandler
                0x080006c0                SPI6_IRQHandler
                0x080006c0                TIM2_IRQHandler
                0x080006c0                OTG_FS_WKUP_IRQHandler
                0x080006c0                TIM1_TRG_COM_TIM11_IRQHandler
                0x080006c0                OTG_HS_IRQHandler
                0x080006c0                DMA2D_IRQHandler
                0x080006c0                EXTI1_IRQHandler
                0x080006c0                UART7_IRQHandler
                0x080006c0                USART2_IRQHandler
                0x080006c0                I2C2_ER_IRQHandler
                0x080006c0                DMA2_Stream1_IRQHandler
                0x080006c0                CAN1_SCE_IRQHandler
                0x080006c0                FLASH_IRQHandler
                0x080006c0                DMA2_Stream4_IRQHandler
                0x080006c0                BusFault_Handler
                0x080006c0                USART1_IRQHandler
                0x080006c0                OTG_FS_IRQHandler
                0x080006c0                SPI3_IRQHandler
                0x080006c0                DMA1_Stream4_IRQHandler
                0x080006c0                I2C1_ER_IRQHandler
                0x080006c0                FMC_IRQHandler
                0x080006c0                DMA2_Stream6_IRQHandler
                0x080006c0                SAI1_IRQHandler
                0x080006c0                DMA1_Stream3_IRQHandler
 *fill*         0x080006c2        0x2 
 .text.SystemInit
                0x080006c4       0x6c src\system_stm32f4xx.o
                0x080006c4                SystemInit
 .text.SetSysClock
                0x08000730       0xf8 src\system_stm32f4xx.o
 .text.__libc_init_array
                0x08000828       0x48 c:/program files (x86)/atollic/truestudio for arm 8.0.0/armtools/bin/../lib/gcc/arm-atollic-eabi/6.3.1/../../../../arm-atollic-eabi/lib/armv7e-m/fpu\libc_nano.a(lib_a-init.o)
                0x08000828                __libc_init_array
 .text.malloc   0x08000870       0x10 c:/program files (x86)/atollic/truestudio for arm 8.0.0/armtools/bin/../lib/gcc/arm-atollic-eabi/6.3.1/../../../../arm-atollic-eabi/lib/armv7e-m/fpu\libc_nano.a(lib_a-malloc.o)
                0x08000870                malloc
 .text._malloc_r
                0x08000880       0xbc c:/program files (x86)/atollic/truestudio for arm 8.0.0/armtools/bin/../lib/gcc/arm-atollic-eabi/6.3.1/../../../../arm-atollic-eabi/lib/armv7e-m/fpu\libc_nano.a(lib_a-nano-mallocr.o)
                0x08000880                _malloc_r
 .text._sbrk_r  0x0800093c       0x20 c:/program files (x86)/atollic/truestudio for arm 8.0.0/armtools/bin/../lib/gcc/arm-atollic-eabi/6.3.1/../../../../arm-atollic-eabi/lib/armv7e-m/fpu\libc_nano.a(lib_a-sbrkr.o)
                0x0800093c                _sbrk_r
 .text.__malloc_lock
                0x0800095c        0x2 c:/program files (x86)/atollic/truestudio for arm 8.0.0/armtools/bin/../lib/gcc/arm-atollic-eabi/6.3.1/../../../../arm-atollic-eabi/lib/armv7e-m/fpu\libc_nano.a(lib_a-mlock.o)
                0x0800095c                __malloc_lock
 .text.__malloc_unlock
                0x0800095e        0x2 c:/program files (x86)/atollic/truestudio for arm 8.0.0/armtools/bin/../lib/gcc/arm-atollic-eabi/6.3.1/../../../../arm-atollic-eabi/lib/armv7e-m/fpu\libc_nano.a(lib_a-mlock.o)
                0x0800095e                __malloc_unlock
 .text._sbrk    0x08000960       0x1c c:/program files (x86)/atollic/truestudio for arm 8.0.0/armtools/bin/../lib/gcc/arm-atollic-eabi/6.3.1/../../../../arm-atollic-eabi/lib/armv7e-m/fpu\libnosys.a(sbrk.o)
                0x08000960                _sbrk
 *(.glue_7)
 .glue_7        0x0800097c        0x0 linker stubs
 *(.glue_7t)
 .glue_7t       0x0800097c        0x0 linker stubs
 *(.eh_frame)
 .eh_frame      0x0800097c        0x0 c:/program files (x86)/atollic/truestudio for arm 8.0.0/armtools/bin/../lib/gcc/arm-atollic-eabi/6.3.1/armv7e-m/fpu/crtbegin.o
 *(.init)
 .init          0x0800097c        0x4 c:/program files (x86)/atollic/truestudio for arm 8.0.0/armtools/bin/../lib/gcc/arm-atollic-eabi/6.3.1/armv7e-m/fpu/crti.o
                0x0800097c                _init
 .init          0x08000980        0x8 c:/program files (x86)/atollic/truestudio for arm 8.0.0/armtools/bin/../lib/gcc/arm-atollic-eabi/6.3.1/armv7e-m/fpu/crtn.o
 *(.fini)
 .fini          0x08000988        0x4 c:/program files (x86)/atollic/truestudio for arm 8.0.0/armtools/bin/../lib/gcc/arm-atollic-eabi/6.3.1/armv7e-m/fpu/crti.o
                0x08000988                _fini
 .fini          0x0800098c        0x8 c:/program files (x86)/atollic/truestudio for arm 8.0.0/armtools/bin/../lib/gcc/arm-atollic-eabi/6.3.1/armv7e-m/fpu/crtn.o
                0x08000994                . = ALIGN (0x4)
                0x08000994                _etext = .

.vfp11_veneer   0x08000994        0x0
 .vfp11_veneer  0x08000994        0x0 linker stubs

.v4_bx          0x08000994        0x0
 .v4_bx         0x08000994        0x0 linker stubs

.iplt           0x08000994        0x0
 .iplt          0x08000994        0x0 c:/program files (x86)/atollic/truestudio for arm 8.0.0/armtools/bin/../lib/gcc/arm-atollic-eabi/6.3.1/armv7e-m/fpu/crtbegin.o

.rel.dyn        0x08000994        0x0
 .rel.iplt      0x08000994        0x0 c:/program files (x86)/atollic/truestudio for arm 8.0.0/armtools/bin/../lib/gcc/arm-atollic-eabi/6.3.1/armv7e-m/fpu/crtbegin.o

.rodata         0x08000994        0x0
                0x08000994                . = ALIGN (0x4)
 *(.rodata)
 *(.rodata*)
                0x08000994                . = ALIGN (0x4)

.ARM.extab
 *(.ARM.extab* .gnu.linkonce.armextab.*)

.ARM            0x08000994        0x0
                0x08000994                __exidx_start = .
 *(.ARM.exidx*)
                0x08000994                __exidx_end = .

.preinit_array  0x08000994        0x0
                0x08000994                PROVIDE (__preinit_array_start, .)
 *(.preinit_array*)
                0x08000994                PROVIDE (__preinit_array_end, .)

.init_array     0x08000994        0x4
                0x08000994                PROVIDE (__init_array_start, .)
 *(SORT(.init_array.*))
 *(.init_array*)
 .init_array    0x08000994        0x4 c:/program files (x86)/atollic/truestudio for arm 8.0.0/armtools/bin/../lib/gcc/arm-atollic-eabi/6.3.1/armv7e-m/fpu/crtbegin.o
                0x08000998                PROVIDE (__init_array_end, .)

.fini_array     0x08000998        0x4
                [!provide]                PROVIDE (__fini_array_start, .)
 *(SORT(.fini_array.*))
 *(.fini_array*)
 .fini_array    0x08000998        0x4 c:/program files (x86)/atollic/truestudio for arm 8.0.0/armtools/bin/../lib/gcc/arm-atollic-eabi/6.3.1/armv7e-m/fpu/crtbegin.o
                [!provide]                PROVIDE (__fini_array_end, .)
                0x0800099c                _sidata = LOADADDR (.data)

.data           0x20000000       0x68 load address 0x0800099c
                0x20000000                . = ALIGN (0x4)
                0x20000000                _sdata = .
 *(.data)
 *(.data*)
 .data.SystemCoreClock
                0x20000000        0x4 src\system_stm32f4xx.o
                0x20000000                SystemCoreClock
 .data._impure_ptr
                0x20000004        0x4 c:/program files (x86)/atollic/truestudio for arm 8.0.0/armtools/bin/../lib/gcc/arm-atollic-eabi/6.3.1/../../../../arm-atollic-eabi/lib/armv7e-m/fpu\libc_nano.a(lib_a-impure.o)
                0x20000004                _impure_ptr
 .data.impure_data
                0x20000008       0x60 c:/program files (x86)/atollic/truestudio for arm 8.0.0/armtools/bin/../lib/gcc/arm-atollic-eabi/6.3.1/../../../../arm-atollic-eabi/lib/armv7e-m/fpu\libc_nano.a(lib_a-impure.o)
                0x20000068                . = ALIGN (0x4)
                0x20000068                _edata = .
                0x08000a04                _siccmram = LOADADDR (.ccmram)

.igot.plt       0x20000068        0x0 load address 0x08000a04
 .igot.plt      0x20000068        0x0 c:/program files (x86)/atollic/truestudio for arm 8.0.0/armtools/bin/../lib/gcc/arm-atollic-eabi/6.3.1/armv7e-m/fpu/crtbegin.o

.ccmram         0x10000000        0x0 load address 0x08000a04
                0x10000000                . = ALIGN (0x4)
                0x10000000                _sccmram = .
 *(.ccmram)
 *(.ccmram*)
                0x10000000                . = ALIGN (0x4)
                0x10000000                _eccmram = .
                0x10000000                . = ALIGN (0x4)

.bss            0x20000068       0x34
                0x20000068                _sbss = .
                0x20000068                __bss_start__ = _sbss
 *(.bss)
 .bss           0x20000068       0x1c c:/program files (x86)/atollic/truestudio for arm 8.0.0/armtools/bin/../lib/gcc/arm-atollic-eabi/6.3.1/armv7e-m/fpu/crtbegin.o
 *(.bss*)
 .bss.systemTickCnt
                0x20000084        0x4 src\TASK_MANAGER\taskmanager.o
                0x20000084                systemTickCnt
 .bss.__malloc_free_list
                0x20000088        0x4 c:/program files (x86)/atollic/truestudio for arm 8.0.0/armtools/bin/../lib/gcc/arm-atollic-eabi/6.3.1/../../../../arm-atollic-eabi/lib/armv7e-m/fpu\libc_nano.a(lib_a-nano-mallocr.o)
                0x20000088                __malloc_free_list
 .bss.__malloc_sbrk_start
                0x2000008c        0x4 c:/program files (x86)/atollic/truestudio for arm 8.0.0/armtools/bin/../lib/gcc/arm-atollic-eabi/6.3.1/../../../../arm-atollic-eabi/lib/armv7e-m/fpu\libc_nano.a(lib_a-nano-mallocr.o)
                0x2000008c                __malloc_sbrk_start
 .bss.heap_end.5239
                0x20000090        0x4 c:/program files (x86)/atollic/truestudio for arm 8.0.0/armtools/bin/../lib/gcc/arm-atollic-eabi/6.3.1/../../../../arm-atollic-eabi/lib/armv7e-m/fpu\libnosys.a(sbrk.o)
 *(COMMON)
 COMMON         0x20000094        0x4 src\TASK_MANAGER\taskmanager.o
                0x20000094                idleTaskHook
 COMMON         0x20000098        0x4 c:/program files (x86)/atollic/truestudio for arm 8.0.0/armtools/bin/../lib/gcc/arm-atollic-eabi/6.3.1/../../../../arm-atollic-eabi/lib/armv7e-m/fpu\libc_nano.a(lib_a-reent.o)
                0x20000098                errno
                0x2000009c                . = ALIGN (0x4)
                0x2000009c                _ebss = .
                0x2000009c                __bss_end__ = _ebss

._user_heap_stack
                0x2000009c      0x400
                0x2000009c                . = ALIGN (0x4)
                0x2000009c                PROVIDE (end, .)
                [!provide]                PROVIDE (_end, .)
                0x2000009c                . = (. + _Min_Heap_Size)
                0x2000049c                . = (. + _Min_Stack_Size)
 *fill*         0x2000009c      0x400 
                0x2000049c                . = ALIGN (0x4)

.memory_b1_text
 *(.mb1text)
 *(.mb1text*)
 *(.mb1rodata)
 *(.mb1rodata*)

/DISCARD/
 libc.a(*)
 libm.a(*)
 libgcc.a(*)

.ARM.attributes
                0x00000000       0x30
 *(.ARM.attributes)
 .ARM.attributes
                0x00000000       0x22 c:/program files (x86)/atollic/truestudio for arm 8.0.0/armtools/bin/../lib/gcc/arm-atollic-eabi/6.3.1/armv7e-m/fpu/crti.o
 .ARM.attributes
                0x00000022       0x34 c:/program files (x86)/atollic/truestudio for arm 8.0.0/armtools/bin/../lib/gcc/arm-atollic-eabi/6.3.1/armv7e-m/fpu/crtbegin.o
 .ARM.attributes
                0x00000056       0x39 src\BloedeBleidd_Libraries\GPIO\gpio.o
 .ARM.attributes
                0x0000008f       0x39 src\TASK_MANAGER\taskmanager.o
 .ARM.attributes
                0x000000c8       0x39 src\main.o
 .ARM.attributes
                0x00000101       0x21 src\startup_stm32f429x.o
 .ARM.attributes
                0x00000122       0x39 src\system_stm32f4xx.o
 .ARM.attributes
                0x0000015b       0x34 c:/program files (x86)/atollic/truestudio for arm 8.0.0/armtools/bin/../lib/gcc/arm-atollic-eabi/6.3.1/../../../../arm-atollic-eabi/lib/armv7e-m/fpu\libc_nano.a(lib_a-init.o)
 .ARM.attributes
                0x0000018f       0x34 c:/program files (x86)/atollic/truestudio for arm 8.0.0/armtools/bin/../lib/gcc/arm-atollic-eabi/6.3.1/../../../../arm-atollic-eabi/lib/armv7e-m/fpu\libc_nano.a(lib_a-malloc.o)
 .ARM.attributes
                0x000001c3       0x34 c:/program files (x86)/atollic/truestudio for arm 8.0.0/armtools/bin/../lib/gcc/arm-atollic-eabi/6.3.1/../../../../arm-atollic-eabi/lib/armv7e-m/fpu\libc_nano.a(lib_a-nano-mallocr.o)
 .ARM.attributes
                0x000001f7       0x34 c:/program files (x86)/atollic/truestudio for arm 8.0.0/armtools/bin/../lib/gcc/arm-atollic-eabi/6.3.1/../../../../arm-atollic-eabi/lib/armv7e-m/fpu\libc_nano.a(lib_a-sbrkr.o)
 .ARM.attributes
                0x0000022b       0x34 c:/program files (x86)/atollic/truestudio for arm 8.0.0/armtools/bin/../lib/gcc/arm-atollic-eabi/6.3.1/../../../../arm-atollic-eabi/lib/armv7e-m/fpu\libc_nano.a(lib_a-impure.o)
 .ARM.attributes
                0x0000025f       0x34 c:/program files (x86)/atollic/truestudio for arm 8.0.0/armtools/bin/../lib/gcc/arm-atollic-eabi/6.3.1/../../../../arm-atollic-eabi/lib/armv7e-m/fpu\libc_nano.a(lib_a-mlock.o)
 .ARM.attributes
                0x00000293       0x34 c:/program files (x86)/atollic/truestudio for arm 8.0.0/armtools/bin/../lib/gcc/arm-atollic-eabi/6.3.1/../../../../arm-atollic-eabi/lib/armv7e-m/fpu\libc_nano.a(lib_a-reent.o)
 .ARM.attributes
                0x000002c7       0x34 c:/program files (x86)/atollic/truestudio for arm 8.0.0/armtools/bin/../lib/gcc/arm-atollic-eabi/6.3.1/../../../../arm-atollic-eabi/lib/armv7e-m/fpu\libnosys.a(sbrk.o)
 .ARM.attributes
                0x000002fb       0x22 c:/program files (x86)/atollic/truestudio for arm 8.0.0/armtools/bin/../lib/gcc/arm-atollic-eabi/6.3.1/armv7e-m/fpu/crtn.o
OUTPUT(BloedeBleidd_Scheduler.elf elf32-littlearm)

.debug_info     0x00000000     0x241f
 .debug_info    0x00000000      0x745 src\BloedeBleidd_Libraries\GPIO\gpio.o
 .debug_info    0x00000745     0x1318 src\TASK_MANAGER\taskmanager.o
 .debug_info    0x00001a5d      0x351 src\main.o
 .debug_info    0x00001dae       0x77 src\startup_stm32f429x.o
 .debug_info    0x00001e25      0x5fa src\system_stm32f4xx.o

.debug_abbrev   0x00000000      0x6cf
 .debug_abbrev  0x00000000      0x158 src\BloedeBleidd_Libraries\GPIO\gpio.o
 .debug_abbrev  0x00000158      0x2ee src\TASK_MANAGER\taskmanager.o
 .debug_abbrev  0x00000446      0x11f src\main.o
 .debug_abbrev  0x00000565       0x12 src\startup_stm32f429x.o
 .debug_abbrev  0x00000577      0x158 src\system_stm32f4xx.o

.debug_aranges  0x00000000      0x188
 .debug_aranges
                0x00000000       0x68 src\BloedeBleidd_Libraries\GPIO\gpio.o
 .debug_aranges
                0x00000068       0x98 src\TASK_MANAGER\taskmanager.o
 .debug_aranges
                0x00000100       0x30 src\main.o
 .debug_aranges
                0x00000130       0x28 src\startup_stm32f429x.o
 .debug_aranges
                0x00000158       0x30 src\system_stm32f4xx.o

.debug_ranges   0x00000000      0x140
 .debug_ranges  0x00000000       0x58 src\BloedeBleidd_Libraries\GPIO\gpio.o
 .debug_ranges  0x00000058       0x88 src\TASK_MANAGER\taskmanager.o
 .debug_ranges  0x000000e0       0x20 src\main.o
 .debug_ranges  0x00000100       0x20 src\startup_stm32f429x.o
 .debug_ranges  0x00000120       0x20 src\system_stm32f4xx.o

.debug_line     0x00000000      0xb84
 .debug_line    0x00000000      0x293 src\BloedeBleidd_Libraries\GPIO\gpio.o
 .debug_line    0x00000293      0x448 src\TASK_MANAGER\taskmanager.o
 .debug_line    0x000006db      0x213 src\main.o
 .debug_line    0x000008ee       0x7a src\startup_stm32f429x.o
 .debug_line    0x00000968      0x21c src\system_stm32f4xx.o

.debug_str      0x00000000     0x1d47
 .debug_str     0x00000000      0xecb src\BloedeBleidd_Libraries\GPIO\gpio.o
                                0xf67 (size before relaxing)
 .debug_str     0x00000ecb      0xd6c src\TASK_MANAGER\taskmanager.o
                                0xf20 (size before relaxing)
 .debug_str     0x00001c37       0x52 src\main.o
                                0xc17 (size before relaxing)
 .debug_str     0x00001c89       0xbe src\system_stm32f4xx.o
                                0x41a (size before relaxing)

.comment        0x00000000       0x7c
 .comment       0x00000000       0x7c src\BloedeBleidd_Libraries\GPIO\gpio.o
                                 0x7d (size before relaxing)
 .comment       0x0000007c       0x7d src\TASK_MANAGER\taskmanager.o
 .comment       0x0000007c       0x7d src\main.o
 .comment       0x0000007c       0x7d src\system_stm32f4xx.o

.debug_frame    0x00000000      0x638
 .debug_frame   0x00000000      0x198 src\BloedeBleidd_Libraries\GPIO\gpio.o
 .debug_frame   0x00000198      0x250 src\TASK_MANAGER\taskmanager.o
 .debug_frame   0x000003e8       0x74 src\main.o
 .debug_frame   0x0000045c       0x7c src\system_stm32f4xx.o
 .debug_frame   0x000004d8       0x2c c:/program files (x86)/atollic/truestudio for arm 8.0.0/armtools/bin/../lib/gcc/arm-atollic-eabi/6.3.1/../../../../arm-atollic-eabi/lib/armv7e-m/fpu\libc_nano.a(lib_a-init.o)
 .debug_frame   0x00000504       0x30 c:/program files (x86)/atollic/truestudio for arm 8.0.0/armtools/bin/../lib/gcc/arm-atollic-eabi/6.3.1/../../../../arm-atollic-eabi/lib/armv7e-m/fpu\libc_nano.a(lib_a-malloc.o)
 .debug_frame   0x00000534       0x2c c:/program files (x86)/atollic/truestudio for arm 8.0.0/armtools/bin/../lib/gcc/arm-atollic-eabi/6.3.1/../../../../arm-atollic-eabi/lib/armv7e-m/fpu\libc_nano.a(lib_a-nano-mallocr.o)
 .debug_frame   0x00000560       0x2c c:/program files (x86)/atollic/truestudio for arm 8.0.0/armtools/bin/../lib/gcc/arm-atollic-eabi/6.3.1/../../../../arm-atollic-eabi/lib/armv7e-m/fpu\libc_nano.a(lib_a-sbrkr.o)
 .debug_frame   0x0000058c       0x30 c:/program files (x86)/atollic/truestudio for arm 8.0.0/armtools/bin/../lib/gcc/arm-atollic-eabi/6.3.1/../../../../arm-atollic-eabi/lib/armv7e-m/fpu\libc_nano.a(lib_a-mlock.o)
 .debug_frame   0x000005bc       0x5c c:/program files (x86)/atollic/truestudio for arm 8.0.0/armtools/bin/../lib/gcc/arm-atollic-eabi/6.3.1/../../../../arm-atollic-eabi/lib/armv7e-m/fpu\libc_nano.a(lib_a-reent.o)
 .debug_frame   0x00000618       0x20 c:/program files (x86)/atollic/truestudio for arm 8.0.0/armtools/bin/../lib/gcc/arm-atollic-eabi/6.3.1/../../../../arm-atollic-eabi/lib/armv7e-m/fpu\libnosys.a(sbrk.o)

.stabstr        0x00000000       0x3f
 .stabstr       0x00000000       0x3f c:/program files (x86)/atollic/truestudio for arm 8.0.0/armtools/bin/../lib/gcc/arm-atollic-eabi/6.3.1/../../../../arm-atollic-eabi/lib/armv7e-m/fpu\libnosys.a(write.o)

Cross Reference Table

Symbol                                            File
ADC_IRQHandler                                    src\startup_stm32f429x.o
AHBPrescTable                                     src\system_stm32f4xx.o
BusFault_Handler                                  src\startup_stm32f429x.o
CAN1_RX0_IRQHandler                               src\startup_stm32f429x.o
CAN1_RX1_IRQHandler                               src\startup_stm32f429x.o
CAN1_SCE_IRQHandler                               src\startup_stm32f429x.o
CAN1_TX_IRQHandler                                src\startup_stm32f429x.o
CAN2_RX0_IRQHandler                               src\startup_stm32f429x.o
CAN2_RX1_IRQHandler                               src\startup_stm32f429x.o
CAN2_SCE_IRQHandler                               src\startup_stm32f429x.o
CAN2_TX_IRQHandler                                src\startup_stm32f429x.o
CRYP_IRQHandler                                   src\startup_stm32f429x.o
DCMI_IRQHandler                                   src\startup_stm32f429x.o
DMA1_Stream0_IRQHandler                           src\startup_stm32f429x.o
DMA1_Stream1_IRQHandler                           src\startup_stm32f429x.o
DMA1_Stream2_IRQHandler                           src\startup_stm32f429x.o
DMA1_Stream3_IRQHandler                           src\startup_stm32f429x.o
DMA1_Stream4_IRQHandler                           src\startup_stm32f429x.o
DMA1_Stream5_IRQHandler                           src\startup_stm32f429x.o
DMA1_Stream6_IRQHandler                           src\startup_stm32f429x.o
DMA1_Stream7_IRQHandler                           src\startup_stm32f429x.o
DMA2D_IRQHandler                                  src\startup_stm32f429x.o
DMA2_Stream0_IRQHandler                           src\startup_stm32f429x.o
DMA2_Stream1_IRQHandler                           src\startup_stm32f429x.o
DMA2_Stream2_IRQHandler                           src\startup_stm32f429x.o
DMA2_Stream3_IRQHandler                           src\startup_stm32f429x.o
DMA2_Stream4_IRQHandler                           src\startup_stm32f429x.o
DMA2_Stream5_IRQHandler                           src\startup_stm32f429x.o
DMA2_Stream6_IRQHandler                           src\startup_stm32f429x.o
DMA2_Stream7_IRQHandler                           src\startup_stm32f429x.o
DebugMon_Handler                                  src\startup_stm32f429x.o
Default_Handler                                   src\startup_stm32f429x.o
ETH_IRQHandler                                    src\startup_stm32f429x.o
ETH_WKUP_IRQHandler                               src\startup_stm32f429x.o
EXTI0_IRQHandler                                  src\startup_stm32f429x.o
EXTI15_10_IRQHandler                              src\startup_stm32f429x.o
EXTI1_IRQHandler                                  src\startup_stm32f429x.o
EXTI2_IRQHandler                                  src\startup_stm32f429x.o
EXTI3_IRQHandler                                  src\startup_stm32f429x.o
EXTI4_IRQHandler                                  src\startup_stm32f429x.o
EXTI9_5_IRQHandler                                src\startup_stm32f429x.o
FLASH_IRQHandler                                  src\startup_stm32f429x.o
FMC_IRQHandler                                    src\startup_stm32f429x.o
FPU_IRQHandler                                    src\startup_stm32f429x.o
HASH_RNG_IRQHandler                               src\startup_stm32f429x.o
HardFault_Handler                                 src\startup_stm32f429x.o
I2C1_ER_IRQHandler                                src\startup_stm32f429x.o
I2C1_EV_IRQHandler                                src\startup_stm32f429x.o
I2C2_ER_IRQHandler                                src\startup_stm32f429x.o
I2C2_EV_IRQHandler                                src\startup_stm32f429x.o
I2C3_ER_IRQHandler                                src\startup_stm32f429x.o
I2C3_EV_IRQHandler                                src\startup_stm32f429x.o
LTDC_ER_IRQHandler                                src\startup_stm32f429x.o
LTDC_IRQHandler                                   src\startup_stm32f429x.o
MemManage_Handler                                 src\startup_stm32f429x.o
NMI_Handler                                       src\startup_stm32f429x.o
OTG_FS_IRQHandler                                 src\startup_stm32f429x.o
OTG_FS_WKUP_IRQHandler                            src\startup_stm32f429x.o
OTG_HS_EP1_IN_IRQHandler                          src\startup_stm32f429x.o
OTG_HS_EP1_OUT_IRQHandler                         src\startup_stm32f429x.o
OTG_HS_IRQHandler                                 src\startup_stm32f429x.o
OTG_HS_WKUP_IRQHandler                            src\startup_stm32f429x.o
PVD_IRQHandler                                    src\startup_stm32f429x.o
PendSV_Handler                                    src\startup_stm32f429x.o
RCC_IRQHandler                                    src\startup_stm32f429x.o
RTC_Alarm_IRQHandler                              src\startup_stm32f429x.o
RTC_WKUP_IRQHandler                               src\startup_stm32f429x.o
Reset_Handler                                     src\startup_stm32f429x.o
SAI1_IRQHandler                                   src\startup_stm32f429x.o
SDIO_IRQHandler                                   src\startup_stm32f429x.o
SPI1_IRQHandler                                   src\startup_stm32f429x.o
SPI2_IRQHandler                                   src\startup_stm32f429x.o
SPI3_IRQHandler                                   src\startup_stm32f429x.o
SPI4_IRQHandler                                   src\startup_stm32f429x.o
SPI5_IRQHandler                                   src\startup_stm32f429x.o
SPI6_IRQHandler                                   src\startup_stm32f429x.o
SVC_Handler                                       src\startup_stm32f429x.o
SysTick_Handler                                   src\TASK_MANAGER\taskmanager.o
SystemCoreClock                                   src\system_stm32f4xx.o
                                                  src\TASK_MANAGER\taskmanager.o
SystemCoreClockUpdate                             src\system_stm32f4xx.o
SystemInit                                        src\system_stm32f4xx.o
                                                  src\startup_stm32f429x.o
TAMP_STAMP_IRQHandler                             src\startup_stm32f429x.o
TIM1_BRK_TIM9_IRQHandler                          src\startup_stm32f429x.o
TIM1_CC_IRQHandler                                src\startup_stm32f429x.o
TIM1_TRG_COM_TIM11_IRQHandler                     src\startup_stm32f429x.o
TIM1_UP_TIM10_IRQHandler                          src\startup_stm32f429x.o
TIM2_IRQHandler                                   src\startup_stm32f429x.o
TIM3_IRQHandler                                   src\startup_stm32f429x.o
TIM4_IRQHandler                                   src\startup_stm32f429x.o
TIM5_IRQHandler                                   src\startup_stm32f429x.o
TIM6_DAC_IRQHandler                               src\startup_stm32f429x.o
TIM7_IRQHandler                                   src\startup_stm32f429x.o
TIM8_BRK_TIM12_IRQHandler                         src\startup_stm32f429x.o
TIM8_CC_IRQHandler                                src\startup_stm32f429x.o
TIM8_TRG_COM_TIM14_IRQHandler                     src\startup_stm32f429x.o
TIM8_UP_TIM13_IRQHandler                          src\startup_stm32f429x.o
UART4_IRQHandler                                  src\startup_stm32f429x.o
UART5_IRQHandler                                  src\startup_stm32f429x.o
UART7_IRQHandler                                  src\startup_stm32f429x.o
UART8_IRQHandler                                  src\startup_stm32f429x.o
USART1_IRQHandler                                 src\startup_stm32f429x.o
USART2_IRQHandler                                 src\startup_stm32f429x.o
USART3_IRQHandler                                 src\startup_stm32f429x.o
USART6_IRQHandler                                 src\startup_stm32f429x.o
UsageFault_Handler                                src\startup_stm32f429x.o
WWDG_IRQHandler                                   src\startup_stm32f429x.o
__deregister_frame_info                           c:/program files (x86)/atollic/truestudio for arm 8.0.0/armtools/bin/../lib/gcc/arm-atollic-eabi/6.3.1/armv7e-m/fpu/crtbegin.o
__dso_handle                                      c:/program files (x86)/atollic/truestudio for arm 8.0.0/armtools/bin/../lib/gcc/arm-atollic-eabi/6.3.1/armv7e-m/fpu/crtbegin.o
__init_array_end                                  c:/program files (x86)/atollic/truestudio for arm 8.0.0/armtools/bin/../lib/gcc/arm-atollic-eabi/6.3.1/../../../../arm-atollic-eabi/lib/armv7e-m/fpu\libc_nano.a(lib_a-init.o)
__init_array_start                                c:/program files (x86)/atollic/truestudio for arm 8.0.0/armtools/bin/../lib/gcc/arm-atollic-eabi/6.3.1/../../../../arm-atollic-eabi/lib/armv7e-m/fpu\libc_nano.a(lib_a-init.o)
__libc_init_array                                 c:/program files (x86)/atollic/truestudio for arm 8.0.0/armtools/bin/../lib/gcc/arm-atollic-eabi/6.3.1/../../../../arm-atollic-eabi/lib/armv7e-m/fpu\libc_nano.a(lib_a-init.o)
                                                  src\startup_stm32f429x.o
__malloc_free_list                                c:/program files (x86)/atollic/truestudio for arm 8.0.0/armtools/bin/../lib/gcc/arm-atollic-eabi/6.3.1/../../../../arm-atollic-eabi/lib/armv7e-m/fpu\libc_nano.a(lib_a-nano-mallocr.o)
                                                  c:/program files (x86)/atollic/truestudio for arm 8.0.0/armtools/bin/../lib/gcc/arm-atollic-eabi/6.3.1/../../../../arm-atollic-eabi/lib/armv7e-m/fpu\libc_nano.a(lib_a-nano-freer.o)
__malloc_lock                                     c:/program files (x86)/atollic/truestudio for arm 8.0.0/armtools/bin/../lib/gcc/arm-atollic-eabi/6.3.1/../../../../arm-atollic-eabi/lib/armv7e-m/fpu\libc_nano.a(lib_a-mlock.o)
                                                  c:/program files (x86)/atollic/truestudio for arm 8.0.0/armtools/bin/../lib/gcc/arm-atollic-eabi/6.3.1/../../../../arm-atollic-eabi/lib/armv7e-m/fpu\libc_nano.a(lib_a-nano-mallocr.o)
                                                  c:/program files (x86)/atollic/truestudio for arm 8.0.0/armtools/bin/../lib/gcc/arm-atollic-eabi/6.3.1/../../../../arm-atollic-eabi/lib/armv7e-m/fpu\libc_nano.a(lib_a-nano-freer.o)
__malloc_sbrk_start                               c:/program files (x86)/atollic/truestudio for arm 8.0.0/armtools/bin/../lib/gcc/arm-atollic-eabi/6.3.1/../../../../arm-atollic-eabi/lib/armv7e-m/fpu\libc_nano.a(lib_a-nano-mallocr.o)
__malloc_unlock                                   c:/program files (x86)/atollic/truestudio for arm 8.0.0/armtools/bin/../lib/gcc/arm-atollic-eabi/6.3.1/../../../../arm-atollic-eabi/lib/armv7e-m/fpu\libc_nano.a(lib_a-mlock.o)
                                                  c:/program files (x86)/atollic/truestudio for arm 8.0.0/armtools/bin/../lib/gcc/arm-atollic-eabi/6.3.1/../../../../arm-atollic-eabi/lib/armv7e-m/fpu\libc_nano.a(lib_a-nano-mallocr.o)
                                                  c:/program files (x86)/atollic/truestudio for arm 8.0.0/armtools/bin/../lib/gcc/arm-atollic-eabi/6.3.1/../../../../arm-atollic-eabi/lib/armv7e-m/fpu\libc_nano.a(lib_a-nano-freer.o)
__preinit_array_end                               c:/program files (x86)/atollic/truestudio for arm 8.0.0/armtools/bin/../lib/gcc/arm-atollic-eabi/6.3.1/../../../../arm-atollic-eabi/lib/armv7e-m/fpu\libc_nano.a(lib_a-init.o)
__preinit_array_start                             c:/program files (x86)/atollic/truestudio for arm 8.0.0/armtools/bin/../lib/gcc/arm-atollic-eabi/6.3.1/../../../../arm-atollic-eabi/lib/armv7e-m/fpu\libc_nano.a(lib_a-init.o)
__register_frame_info                             c:/program files (x86)/atollic/truestudio for arm 8.0.0/armtools/bin/../lib/gcc/arm-atollic-eabi/6.3.1/armv7e-m/fpu/crtbegin.o
__sf_fake_stderr                                  c:/program files (x86)/atollic/truestudio for arm 8.0.0/armtools/bin/../lib/gcc/arm-atollic-eabi/6.3.1/../../../../arm-atollic-eabi/lib/armv7e-m/fpu\libc_nano.a(lib_a-impure.o)
__sf_fake_stdin                                   c:/program files (x86)/atollic/truestudio for arm 8.0.0/armtools/bin/../lib/gcc/arm-atollic-eabi/6.3.1/../../../../arm-atollic-eabi/lib/armv7e-m/fpu\libc_nano.a(lib_a-impure.o)
__sf_fake_stdout                                  c:/program files (x86)/atollic/truestudio for arm 8.0.0/armtools/bin/../lib/gcc/arm-atollic-eabi/6.3.1/../../../../arm-atollic-eabi/lib/armv7e-m/fpu\libc_nano.a(lib_a-impure.o)
_ebss                                             src\startup_stm32f429x.o
_edata                                            src\startup_stm32f429x.o
_estack                                           src\startup_stm32f429x.o
_fini                                             c:/program files (x86)/atollic/truestudio for arm 8.0.0/armtools/bin/../lib/gcc/arm-atollic-eabi/6.3.1/armv7e-m/fpu/crti.o
_free_r                                           c:/program files (x86)/atollic/truestudio for arm 8.0.0/armtools/bin/../lib/gcc/arm-atollic-eabi/6.3.1/../../../../arm-atollic-eabi/lib/armv7e-m/fpu\libc_nano.a(lib_a-nano-freer.o)
                                                  c:/program files (x86)/atollic/truestudio for arm 8.0.0/armtools/bin/../lib/gcc/arm-atollic-eabi/6.3.1/../../../../arm-atollic-eabi/lib/armv7e-m/fpu\libc_nano.a(lib_a-reent.o)
                                                  c:/program files (x86)/atollic/truestudio for arm 8.0.0/armtools/bin/../lib/gcc/arm-atollic-eabi/6.3.1/../../../../arm-atollic-eabi/lib/armv7e-m/fpu\libc_nano.a(lib_a-malloc.o)
_global_impure_ptr                                c:/program files (x86)/atollic/truestudio for arm 8.0.0/armtools/bin/../lib/gcc/arm-atollic-eabi/6.3.1/../../../../arm-atollic-eabi/lib/armv7e-m/fpu\libc_nano.a(lib_a-impure.o)
_impure_ptr                                       c:/program files (x86)/atollic/truestudio for arm 8.0.0/armtools/bin/../lib/gcc/arm-atollic-eabi/6.3.1/../../../../arm-atollic-eabi/lib/armv7e-m/fpu\libc_nano.a(lib_a-impure.o)
                                                  c:/program files (x86)/atollic/truestudio for arm 8.0.0/armtools/bin/../lib/gcc/arm-atollic-eabi/6.3.1/../../../../arm-atollic-eabi/lib/armv7e-m/fpu\libc_nano.a(lib_a-reent.o)
                                                  c:/program files (x86)/atollic/truestudio for arm 8.0.0/armtools/bin/../lib/gcc/arm-atollic-eabi/6.3.1/../../../../arm-atollic-eabi/lib/armv7e-m/fpu\libc_nano.a(lib_a-malloc.o)
_init                                             c:/program files (x86)/atollic/truestudio for arm 8.0.0/armtools/bin/../lib/gcc/arm-atollic-eabi/6.3.1/armv7e-m/fpu/crti.o
                                                  c:/program files (x86)/atollic/truestudio for arm 8.0.0/armtools/bin/../lib/gcc/arm-atollic-eabi/6.3.1/../../../../arm-atollic-eabi/lib/armv7e-m/fpu\libc_nano.a(lib_a-init.o)
_malloc_r                                         c:/program files (x86)/atollic/truestudio for arm 8.0.0/armtools/bin/../lib/gcc/arm-atollic-eabi/6.3.1/../../../../arm-atollic-eabi/lib/armv7e-m/fpu\libc_nano.a(lib_a-nano-mallocr.o)
                                                  c:/program files (x86)/atollic/truestudio for arm 8.0.0/armtools/bin/../lib/gcc/arm-atollic-eabi/6.3.1/../../../../arm-atollic-eabi/lib/armv7e-m/fpu\libc_nano.a(lib_a-malloc.o)
_reclaim_reent                                    c:/program files (x86)/atollic/truestudio for arm 8.0.0/armtools/bin/../lib/gcc/arm-atollic-eabi/6.3.1/../../../../arm-atollic-eabi/lib/armv7e-m/fpu\libc_nano.a(lib_a-reent.o)
_sbrk                                             c:/program files (x86)/atollic/truestudio for arm 8.0.0/armtools/bin/../lib/gcc/arm-atollic-eabi/6.3.1/../../../../arm-atollic-eabi/lib/armv7e-m/fpu\libnosys.a(sbrk.o)
                                                  c:/program files (x86)/atollic/truestudio for arm 8.0.0/armtools/bin/../lib/gcc/arm-atollic-eabi/6.3.1/../../../../arm-atollic-eabi/lib/armv7e-m/fpu\libc_nano.a(lib_a-sbrkr.o)
_sbrk_r                                           c:/program files (x86)/atollic/truestudio for arm 8.0.0/armtools/bin/../lib/gcc/arm-atollic-eabi/6.3.1/../../../../arm-atollic-eabi/lib/armv7e-m/fpu\libc_nano.a(lib_a-sbrkr.o)
                                                  c:/program files (x86)/atollic/truestudio for arm 8.0.0/armtools/bin/../lib/gcc/arm-atollic-eabi/6.3.1/../../../../arm-atollic-eabi/lib/armv7e-m/fpu\libc_nano.a(lib_a-nano-mallocr.o)
_sbss                                             src\startup_stm32f429x.o
_sdata                                            src\startup_stm32f429x.o
_sidata                                           src\startup_stm32f429x.o
_write                                            c:/program files (x86)/atollic/truestudio for arm 8.0.0/armtools/bin/../lib/gcc/arm-atollic-eabi/6.3.1/../../../../arm-atollic-eabi/lib/armv7e-m/fpu\libnosys.a(write.o)
                                                  src\tiny_printf.o
cleanup_glue                                      c:/program files (x86)/atollic/truestudio for arm 8.0.0/armtools/bin/../lib/gcc/arm-atollic-eabi/6.3.1/../../../../arm-atollic-eabi/lib/armv7e-m/fpu\libc_nano.a(lib_a-reent.o)
end                                               c:/program files (x86)/atollic/truestudio for arm 8.0.0/armtools/bin/../lib/gcc/arm-atollic-eabi/6.3.1/../../../../arm-atollic-eabi/lib/armv7e-m/fpu\libnosys.a(sbrk.o)
errno                                             c:/program files (x86)/atollic/truestudio for arm 8.0.0/armtools/bin/../lib/gcc/arm-atollic-eabi/6.3.1/../../../../arm-atollic-eabi/lib/armv7e-m/fpu\libc_nano.a(lib_a-reent.o)
                                                  c:/program files (x86)/atollic/truestudio for arm 8.0.0/armtools/bin/../lib/gcc/arm-atollic-eabi/6.3.1/../../../../arm-atollic-eabi/lib/armv7e-m/fpu\libnosys.a(write.o)
                                                  c:/program files (x86)/atollic/truestudio for arm 8.0.0/armtools/bin/../lib/gcc/arm-atollic-eabi/6.3.1/../../../../arm-atollic-eabi/lib/armv7e-m/fpu\libc_nano.a(lib_a-sbrkr.o)
fiprintf                                          src\tiny_printf.o
fprintf                                           src\tiny_printf.o
fputs                                             src\tiny_printf.o
free                                              c:/program files (x86)/atollic/truestudio for arm 8.0.0/armtools/bin/../lib/gcc/arm-atollic-eabi/6.3.1/../../../../arm-atollic-eabi/lib/armv7e-m/fpu\libc_nano.a(lib_a-malloc.o)
fwrite                                            src\tiny_printf.o
g_pfnVectors                                      src\startup_stm32f429x.o
gpioBitRead(GPIO_TypeDef*, unsigned char)         src\BloedeBleidd_Libraries\GPIO\gpio.o
gpioBitReset(GPIO_TypeDef*, unsigned char)        src\BloedeBleidd_Libraries\GPIO\gpio.o
gpioBitSet(GPIO_TypeDef*, unsigned char)          src\BloedeBleidd_Libraries\GPIO\gpio.o
gpioBitToggle(GPIO_TypeDef*, unsigned char)       src\BloedeBleidd_Libraries\GPIO\gpio.o
                                                  src\main.o
gpioBitWrite(GPIO_TypeDef*, unsigned char, bool)  src\BloedeBleidd_Libraries\GPIO\gpio.o
gpioInitialize()                                  src\BloedeBleidd_Libraries\GPIO\gpio.o
                                                  src\main.o
gpioPinAlternateFunctionConfiguration(GPIO_TypeDef*, unsigned char, unsigned char) src\BloedeBleidd_Libraries\GPIO\gpio.o
gpioPinConfiguration(GPIO_TypeDef*, unsigned char, GpioMode) src\BloedeBleidd_Libraries\GPIO\gpio.o
                                                  src\main.o
gpioPortRead(GPIO_TypeDef*)                       src\BloedeBleidd_Libraries\GPIO\gpio.o
gpioPortWrite(GPIO_TypeDef*, unsigned short)      src\BloedeBleidd_Libraries\GPIO\gpio.o
idleTaskHook                                      src\TASK_MANAGER\taskmanager.o
iprintf                                           src\tiny_printf.o
jakiesCos()                                       src\main.o
main                                              src\main.o
                                                  src\startup_stm32f429x.o
malloc                                            c:/program files (x86)/atollic/truestudio for arm 8.0.0/armtools/bin/../lib/gcc/arm-atollic-eabi/6.3.1/../../../../arm-atollic-eabi/lib/armv7e-m/fpu\libc_nano.a(lib_a-malloc.o)
                                                  src\TASK_MANAGER\taskmanager.o
printf                                            src\tiny_printf.o
puts                                              src\tiny_printf.o
schedulerClockInitialize                          src\TASK_MANAGER\taskmanager.o
schedulerCreateTask                               src\TASK_MANAGER\taskmanager.o
                                                  src\main.o
schedulerEditTaskDelay                            src\TASK_MANAGER\taskmanager.o
schedulerEditTaskPeriod                           src\TASK_MANAGER\taskmanager.o
schedulerEditTaskStatus                           src\TASK_MANAGER\taskmanager.o
schedulerGetTaskDelay                             src\TASK_MANAGER\taskmanager.o
schedulerGetTaskPeriod                            src\TASK_MANAGER\taskmanager.o
schedulerGetTaskStatus                            src\TASK_MANAGER\taskmanager.o
schedulerGetTickCounter                           src\TASK_MANAGER\taskmanager.o
                                                  src\main.o
schedulerIdleTask                                 src\TASK_MANAGER\taskmanager.o
schedulerInitialize                               src\TASK_MANAGER\taskmanager.o
                                                  src\main.o
schedulerSearchTask                               src\TASK_MANAGER\taskmanager.o
schedulerStart                                    src\TASK_MANAGER\taskmanager.o
                                                  src\main.o
siprintf                                          src\tiny_printf.o
sprintf                                           src\tiny_printf.o
strlen                                            c:/program files (x86)/atollic/truestudio for arm 8.0.0/armtools/bin/../lib/gcc/arm-atollic-eabi/6.3.1/../../../../arm-atollic-eabi/lib/armv7e-m/fpu\libc_nano.a(lib_a-strlen.o)
                                                  src\tiny_printf.o
systemTickCnt                                     src\TASK_MANAGER\taskmanager.o
testowyTask()                                     src\main.o
ts_formatlength                                   src\tiny_printf.o
ts_formatstring                                   src\tiny_printf.o
ts_itoa                                           src\tiny_printf.o
