:020000040800F2
:100000000000032071060008C1060008C1060008B0
:10001000C1060008C1060008C10600080000000073
:10002000000000000000000000000000C106000801
:10003000C106000800000000C1060008890500088C
:10004000C1060008C1060008C1060008C106000874
:10005000C1060008C1060008C1060008C106000864
:10006000C1060008C1060008C1060008C106000854
:10007000C1060008C1060008C1060008C106000844
:10008000C1060008C1060008C1060008C106000834
:10009000C1060008C1060008C1060008C106000824
:1000A000C1060008C1060008C1060008C106000814
:1000B000C1060008C1060008C1060008C106000804
:1000C000C1060008C1060008C1060008C1060008F4
:1000D000C1060008C1060008C1060008C1060008E4
:1000E000C1060008C1060008C1060008C1060008D4
:1000F000C1060008C1060008C1060008C1060008C4
:10010000C1060008C1060008C1060008C1060008B3
:10011000C1060008C1060008C1060008C1060008A3
:10012000C1060008C1060008C1060008C106000893
:10013000C1060008C1060008C1060008C106000883
:10014000C1060008C1060008C1060008C106000873
:10015000C1060008C1060008C1060008C106000863
:10016000C1060008C1060008C1060008C106000853
:10017000C1060008C1060008C1060008C106000843
:10018000C1060008C1060008C1060008C106000833
:10019000C1060008C1060008C1060008C106000823
:0C01A000C1060008C1060008C1060008E6
:1001AC0010B5054C237833B9044B13B10448AFF3A5
:1001BC0000800123237010BD6800002000000000A7
:1001CC007C09000808B5034B1BB103490348AFF386
:1001DC00008008BD000000006C0000207C090008B5
:1001EC0080B400AF064A064B1B6B6FEA53236FEAD1
:1001FC004323136300BFBD465DF8047B704700BF0B
:10020C000038024080B485B000AF78600B46FB70BC
:10021C001346BB70FB780F2B01DD00236DE07B6870
:10022C001B68FB60FB785B00032202FA03F3DB43E1
:10023C001A46FB681340FB60BB785B1103F00302AA
:10024C00FB785B0002FA03F31A46FB681343FB606E
:10025C00FA687B681A607B685B68FB60FB7801223C
:10026C0002FA03F3DB431A46FB681340FB60BB78CE
:10027C001B1103F00102FB7802FA03F31A46FB6828
:10028C001343FB60FA687B685A607B689B68FB6071
:10029C00FB785B00032202FA03F3DB431A46FB688C
:1002AC001340FB60BB789B1003F00302FB785B00F0
:1002BC0002FA03F31A46FB681343FB60FA687B6887
:1002CC009A607B68DB68FB60FB785B00032202FAB8
:1002DC0003F3DB431A46FB681340FB60BB7803F067
:1002EC000302FB785B0002FA03F31A46FB68134324
:1002FC00FB60FA687B68DA60012318461437BD4648
:10030C005DF8047B704780B483B000AF78600B4617
:10031C00FB707B685B69FA78012101FA02F25A40A2
:10032C007B685A6100BF0C37BD465DF8047B704793
:10033C0080B483B000AF03463960FB7197F9073086
:10034C00002B0BDA0D49FB7903F00F03043B3A68E1
:10035C00D2B21201D2B20B441A7609E0084997F9CD
:10036C0007303A68D2B21201D2B20B4483F80023A0
:10037C0000BF0C37BD465DF8047B704700ED00E014
:10038C0000E100E080B582B000AF78607B68013B93
:10039C00B3F1807F01D301230FE00A4A7B68013B54
:1003AC0053600F214FF0FF30FFF7C2FF054B0022C7
:1003BC009A60044B07221A60002318460837BD4682
:1003CC0080BD00BF10E000E080B582B000AF0346F6
:1003DC00FB80FB88184600F0B7F80346002B01D0D1
:1003EC00012327E0142000F03DFA03461A46134B74
:1003FC001A60124B1B68002B01D102231AE00F4B21
:10040C001B680F4A5A600D4B1B6800221A720B4B6B
:10041C001B6802225A72094B1B684FF47A72DA601D
:10042C00064B1B684FF47A721A61044B1B6800224E
:10043C001A60002318460837BD4680BD9400002082
:10044C004505000880B586B000AFF860B96013466A
:10045C00FB71FB68002B01D102232AE0142000F071
:10046C0001FA03463B613B69002B01D1022320E0DA
:10047C003B69FA685A603B69FA791A723B69022245
:10048C005A723B69BA68DA603B69BA681A613B69AF
:10049C0000221A60094B1B687B6102E07B691B68B8
:1004AC007B617B691B68002BF8D17B693A691A6008
:1004BC00002318461837BD4680BD00BF94000020AD
:1004CC0080B400AF034B1B681846BD465DF8047B37
:1004DC00704700BF8400002080B584B000AF0023BB
:1004EC00FB730023BB60134B1B687B607B685B7AE0
:1004FC00DBB2032B09D17B681B7AFA7B9A4204D8B6
:10050C007B681B7AFB737B68BB607B681B687B60BA
:10051C007B68002BEAD1BB68002BE0D0BB681A6962
:10052C00BB68DA60BB6802225A72BB685B6898478A
:10053C00D5E700BF9400002080B400AF00BFBD46DB
:10054C005DF8047B7047000080B582B000AF0346B5
:10055C00FB80094B1A68FB88B2FBF3F31846FFF7D4
:10056C0011FF0346002B01D0012300E000231846A5
:10057C000837BD4680BD00BF0000002080B483B0AA
:10058C0000AF134B1B680133114A1360114B1B68EE
:10059C007B607B685B7ADBB2022B0CD17B68DB68FF
:1005AC00002B05D07B68DB685A1E7B68DA6002E0A2
:1005BC007B6803225A727B681B687B607B68002B0C
:1005CC00E7D100BF0C37BD465DF8047B704700BF18
:1005DC00840000209400002080B582B000AFFFF7AB
:1005EC006FFF03467B607B6801337B6000BF08377D
:1005FC00BD4680BD80B582B000AFFFF761FF0346FA
:10060C007B607B6801337B600E210348FFF77BFE28
:10061C0000BF0837BD4680BD0018024080B500AF52
:10062C00FFF7DEFD20220E210B48FFF7EBFD4FF408
:10063C007A70FFF7C9FE01224FF47A710748FFF771
:10064C0001FF02224FF4FA710548FFF7FBFEFFF79A
:10065C0043FF0023184680BD00180240E505000842
:10066C0001060008DFF834D0002103E00C4B5B5886
:10067C00435004310B480C4B42189A42F6D30B4AA8
:10068C0002E0002342F8043B094B9A42F9D300F0F4
:10069C0013F800F0C3F8FFF7C1FF70470000032008
:1006AC009C09000800000020680000206800002061
:1006BC009C000020FEE7000080B500AF164A164BE8
:1006CC00D3F8883043F47003C2F88830134A134BC4
:1006DC001B6843F001031360104B00229A600F4A11
:1006EC000E4B1B6823F0847323F4803313600B4B85
:1006FC000B4A5A60094A094B1B6823F48023136088
:10070C00064B0022DA6000F00DF8034B4FF000624C
:10071C009A6000BF80BD00BF00ED00E000380240D1
:10072C001030002480B483B000AF00237B60002322
:10073C003B60364A354B1B6843F480331360334BB4
:10074C001B6803F400333B607B6801337B603B68C0
:10075C00002B03D17B68B3F5A06FF0D12B4B1B683A
:10076C0003F40033002B02D001233B6001E0002393
:10077C003B603B68012B42D1244A244B1B6C43F059
:10078C0080531364224A224B1B6843F4404313608A
:10079C001E4A1E4B9B6893601C4A1C4B9B6843F47F
:1007AC0000439360194A194B9B6843F4A053936020
:1007BC00164B184A5A60154A144B1B6843F0807349
:1007CC00136000BF114B1B6803F00073002BF9D0B2
:1007DC00114B40F205721A600C4A0C4B9B6823F0CB
:1007EC0003039360094A094B9B6843F0020393602F
:1007FC0000BF064B9B6803F00C03082BF9D100BF1C
:10080C000C37BD465DF8047B704700BF00380240D2
:10081C0000700040085A4007003C024070B50D4E75
:10082C000D4CA41BA4100025A54209D10B4E0C4C59
:10083C0000F09EF8A41BA4100025A54205D170BDA4
:10084C0056F8253098470135EEE756F8253098478D
:10085C000135F2E79409000894090008940900088E
:10086C0098090008024B0146186800F003B800BF55
:10087C000400002070B5CD1C25F0030508350C2DA7
:10088C0038BF0C25002D064601DBA94203D90C23E9
:10089C003360002070BD00F05BF8234A14682146D9
:1008AC0091B9224C23681BB9304600F041F8206006
:1008BC002946304600F03CF8431C26D10C2333600B
:1008CC00304600F046F8E4E70B685B1B1AD40B2BA0
:1008DC000FD90B60CD50CC18304600F03AF804F12B
:1008EC000B00231D20F00700C31A1BD05A42E25004
:1008FC0070BD8C420DBF63684B686360136018BF9A
:10090C000C46E9E70C464968CAE7C41C24F003040A
:10091C00A04205D0211A304600F00AF80130CDD0A3
:10092C002560D9E770BD00BF880000208C00002036
:10093C0038B5064C002305460846236000F00AF83B
:10094C00431C02D1236803B12B6038BD98000020F2
:10095C0070477047044B1968024609B9034919607E
:10096C00186802441A607047900000209C00002018
:10097C00F8B500BFF8BC08BC9E467047F8B500BF80
:08098C00F8BC08BC9E46704750
:04099400D101000885
:04099800AD010008A5
:10099C000095BA0A080000200000000000000000CA
:1009AC00000000000000000000000000000000003B
:1009BC00000000000000000000000000000000002B
:1009CC00000000000000000000000000000000001B
:1009DC00000000000000000000000000000000000B
:1009EC0000000000000000000000000000000000FB
:0809FC000000000000000000F3
:040000050800067178
:00000001FF
