
C:\ARM_Atollic_workspace\BloedeBleidd_Scheduler\Debug\BloedeBleidd_Scheduler.elf:     file format elf32-littlearm

Sections:
Idx Name          Size      VMA       LMA       File off  Algn
  0 .isr_vector   000001ac  08000000  08000000  00010000  2**0
                  CONTENTS, ALLOC, LOAD, READONLY, DATA
  1 .text         000007e8  080001ac  080001ac  000101ac  2**2
                  CONTENTS, ALLOC, LOAD, READONLY, CODE
  2 .rodata       00000000  08000994  08000994  00020068  2**0
                  CONTENTS, ALLOC, LOAD, DATA
  3 .init_array   00000004  08000994  08000994  00010994  2**2
                  CONTENTS, ALLOC, LOAD, DATA
  4 .fini_array   00000004  08000998  08000998  00010998  2**2
                  CONTENTS, ALLOC, LOAD, DATA
  5 .data         00000068  20000000  0800099c  00020000  2**2
                  CONTENTS, ALLOC, LOAD, DATA
  6 .ccmram       00000000  10000000  10000000  00020068  2**0
                  CONTENTS
  7 .bss          00000034  20000068  20000068  00020068  2**2
                  ALLOC
  8 ._user_heap_stack 00000400  2000009c  2000009c  00020068  2**0
                  ALLOC
  9 .ARM.attributes 00000030  00000000  00000000  00020068  2**0
                  CONTENTS, READONLY
 10 .debug_info   0000241f  00000000  00000000  00020098  2**0
                  CONTENTS, READONLY, DEBUGGING
 11 .debug_abbrev 000006cf  00000000  00000000  000224b7  2**0
                  CONTENTS, READONLY, DEBUGGING
 12 .debug_aranges 00000188  00000000  00000000  00022b88  2**3
                  CONTENTS, READONLY, DEBUGGING
 13 .debug_ranges 00000140  00000000  00000000  00022d10  2**3
                  CONTENTS, READONLY, DEBUGGING
 14 .debug_line   00000b84  00000000  00000000  00022e50  2**0
                  CONTENTS, READONLY, DEBUGGING
 15 .debug_str    00001d47  00000000  00000000  000239d4  2**0
                  CONTENTS, READONLY, DEBUGGING
 16 .comment      0000007c  00000000  00000000  0002571b  2**0
                  CONTENTS, READONLY
 17 .debug_frame  00000638  00000000  00000000  00025798  2**2
                  CONTENTS, READONLY, DEBUGGING
 18 .stabstr      0000003f  00000000  00000000  00025dd0  2**0
                  CONTENTS, READONLY, DEBUGGING

Disassembly of section .text:

080001ac <__do_global_dtors_aux>:
 80001ac:	b510      	push	{r4, lr}
 80001ae:	4c05      	ldr	r4, [pc, #20]	; (80001c4 <__do_global_dtors_aux+0x18>)
 80001b0:	7823      	ldrb	r3, [r4, #0]
 80001b2:	b933      	cbnz	r3, 80001c2 <__do_global_dtors_aux+0x16>
 80001b4:	4b04      	ldr	r3, [pc, #16]	; (80001c8 <__do_global_dtors_aux+0x1c>)
 80001b6:	b113      	cbz	r3, 80001be <__do_global_dtors_aux+0x12>
 80001b8:	4804      	ldr	r0, [pc, #16]	; (80001cc <__do_global_dtors_aux+0x20>)
 80001ba:	f3af 8000 	nop.w
 80001be:	2301      	movs	r3, #1
 80001c0:	7023      	strb	r3, [r4, #0]
 80001c2:	bd10      	pop	{r4, pc}
 80001c4:	20000068 	.word	0x20000068
 80001c8:	00000000 	.word	0x00000000
 80001cc:	0800097c 	.word	0x0800097c

080001d0 <frame_dummy>:
 80001d0:	b508      	push	{r3, lr}
 80001d2:	4b03      	ldr	r3, [pc, #12]	; (80001e0 <frame_dummy+0x10>)
 80001d4:	b11b      	cbz	r3, 80001de <frame_dummy+0xe>
 80001d6:	4903      	ldr	r1, [pc, #12]	; (80001e4 <frame_dummy+0x14>)
 80001d8:	4803      	ldr	r0, [pc, #12]	; (80001e8 <frame_dummy+0x18>)
 80001da:	f3af 8000 	nop.w
 80001de:	bd08      	pop	{r3, pc}
 80001e0:	00000000 	.word	0x00000000
 80001e4:	2000006c 	.word	0x2000006c
 80001e8:	0800097c 	.word	0x0800097c

080001ec <_Z14gpioInitializev>:
*/

#include "gpio.h"

void gpioInitialize(void)
{
 80001ec:	b480      	push	{r7}
 80001ee:	af00      	add	r7, sp, #0
#endif

#ifdef STM32F4
	RCC->AHB1ENR |= RCC_AHB1ENR_GPIOAEN | RCC_AHB1ENR_GPIOBEN | RCC_AHB1ENR_GPIOCEN |
					RCC_AHB1ENR_GPIODEN | RCC_AHB1ENR_GPIOEEN | RCC_AHB1ENR_GPIOFEN |
					RCC_AHB1ENR_GPIOGEN | RCC_AHB1ENR_GPIOHEN | RCC_AHB1ENR_GPIOIEN;
 80001f0:	4a06      	ldr	r2, [pc, #24]	; (800020c <_Z14gpioInitializev+0x20>)
 80001f2:	4b06      	ldr	r3, [pc, #24]	; (800020c <_Z14gpioInitializev+0x20>)
 80001f4:	6b1b      	ldr	r3, [r3, #48]	; 0x30
 80001f6:	ea6f 2353 	mvn.w	r3, r3, lsr #9
 80001fa:	ea6f 2343 	mvn.w	r3, r3, lsl #9
	RCC->AHB1ENR |= RCC_AHB1ENR_GPIOAEN | RCC_AHB1ENR_GPIOBEN | RCC_AHB1ENR_GPIOCEN |
 80001fe:	6313      	str	r3, [r2, #48]	; 0x30
#endif
}
 8000200:	bf00      	nop
 8000202:	46bd      	mov	sp, r7
 8000204:	f85d 7b04 	ldr.w	r7, [sp], #4
 8000208:	4770      	bx	lr
 800020a:	bf00      	nop
 800020c:	40023800 	.word	0x40023800

08000210 <_Z20gpioPinConfigurationP12GPIO_TypeDefh8GpioMode>:

bool gpioPinConfiguration(GPIO_TypeDef * const __restrict__ GPIOx, PinNumber pin, GpioMode mode)
{
 8000210:	b480      	push	{r7}
 8000212:	b085      	sub	sp, #20
 8000214:	af00      	add	r7, sp, #0
 8000216:	6078      	str	r0, [r7, #4]
 8000218:	460b      	mov	r3, r1
 800021a:	70fb      	strb	r3, [r7, #3]
 800021c:	4613      	mov	r3, r2
 800021e:	70bb      	strb	r3, [r7, #2]
	volatile uint32_t tmp;
	if(pin>=16)	return false;
 8000220:	78fb      	ldrb	r3, [r7, #3]
 8000222:	2b0f      	cmp	r3, #15
 8000224:	dd01      	ble.n	800022a <_Z20gpioPinConfigurationP12GPIO_TypeDefh8GpioMode+0x1a>
 8000226:	2300      	movs	r3, #0
 8000228:	e06d      	b.n	8000306 <_Z20gpioPinConfigurationP12GPIO_TypeDefh8GpioMode+0xf6>

#if defined(STM32L0) || defined(STM32L1) || defined(STM32L4) || defined (STM32F2) || defined (STM32F3) || defined(STM32F4) || defined(STM32F7) || defined(STM32H7)
	tmp = GPIOx->MODER;
 800022a:	687b      	ldr	r3, [r7, #4]
 800022c:	681b      	ldr	r3, [r3, #0]
 800022e:	60fb      	str	r3, [r7, #12]
	tmp &= ~(0x03 << pin*2);
 8000230:	78fb      	ldrb	r3, [r7, #3]
 8000232:	005b      	lsls	r3, r3, #1
 8000234:	2203      	movs	r2, #3
 8000236:	fa02 f303 	lsl.w	r3, r2, r3
 800023a:	43db      	mvns	r3, r3
 800023c:	461a      	mov	r2, r3
 800023e:	68fb      	ldr	r3, [r7, #12]
 8000240:	4013      	ands	r3, r2
 8000242:	60fb      	str	r3, [r7, #12]
	tmp |= (((mode>>5) & 0x03) << (pin*2));
 8000244:	78bb      	ldrb	r3, [r7, #2]
 8000246:	115b      	asrs	r3, r3, #5
 8000248:	f003 0203 	and.w	r2, r3, #3
 800024c:	78fb      	ldrb	r3, [r7, #3]
 800024e:	005b      	lsls	r3, r3, #1
 8000250:	fa02 f303 	lsl.w	r3, r2, r3
 8000254:	461a      	mov	r2, r3
 8000256:	68fb      	ldr	r3, [r7, #12]
 8000258:	4313      	orrs	r3, r2
 800025a:	60fb      	str	r3, [r7, #12]
	GPIOx->MODER = tmp;
 800025c:	68fa      	ldr	r2, [r7, #12]
 800025e:	687b      	ldr	r3, [r7, #4]
 8000260:	601a      	str	r2, [r3, #0]

	tmp = GPIOx->OTYPER;
 8000262:	687b      	ldr	r3, [r7, #4]
 8000264:	685b      	ldr	r3, [r3, #4]
 8000266:	60fb      	str	r3, [r7, #12]
	tmp &= ~(0x01 << pin);
 8000268:	78fb      	ldrb	r3, [r7, #3]
 800026a:	2201      	movs	r2, #1
 800026c:	fa02 f303 	lsl.w	r3, r2, r3
 8000270:	43db      	mvns	r3, r3
 8000272:	461a      	mov	r2, r3
 8000274:	68fb      	ldr	r3, [r7, #12]
 8000276:	4013      	ands	r3, r2
 8000278:	60fb      	str	r3, [r7, #12]
	tmp |= (((mode>>4) & 0x01) << (pin*1));
 800027a:	78bb      	ldrb	r3, [r7, #2]
 800027c:	111b      	asrs	r3, r3, #4
 800027e:	f003 0201 	and.w	r2, r3, #1
 8000282:	78fb      	ldrb	r3, [r7, #3]
 8000284:	fa02 f303 	lsl.w	r3, r2, r3
 8000288:	461a      	mov	r2, r3
 800028a:	68fb      	ldr	r3, [r7, #12]
 800028c:	4313      	orrs	r3, r2
 800028e:	60fb      	str	r3, [r7, #12]
	GPIOx->OTYPER = tmp;
 8000290:	68fa      	ldr	r2, [r7, #12]
 8000292:	687b      	ldr	r3, [r7, #4]
 8000294:	605a      	str	r2, [r3, #4]

	tmp = GPIOx->OSPEEDR;
 8000296:	687b      	ldr	r3, [r7, #4]
 8000298:	689b      	ldr	r3, [r3, #8]
 800029a:	60fb      	str	r3, [r7, #12]
	tmp &= ~(0x03 << pin*2);
 800029c:	78fb      	ldrb	r3, [r7, #3]
 800029e:	005b      	lsls	r3, r3, #1
 80002a0:	2203      	movs	r2, #3
 80002a2:	fa02 f303 	lsl.w	r3, r2, r3
 80002a6:	43db      	mvns	r3, r3
 80002a8:	461a      	mov	r2, r3
 80002aa:	68fb      	ldr	r3, [r7, #12]
 80002ac:	4013      	ands	r3, r2
 80002ae:	60fb      	str	r3, [r7, #12]
	tmp |= (((mode>>2) & 0x03) << (pin*2));
 80002b0:	78bb      	ldrb	r3, [r7, #2]
 80002b2:	109b      	asrs	r3, r3, #2
 80002b4:	f003 0203 	and.w	r2, r3, #3
 80002b8:	78fb      	ldrb	r3, [r7, #3]
 80002ba:	005b      	lsls	r3, r3, #1
 80002bc:	fa02 f303 	lsl.w	r3, r2, r3
 80002c0:	461a      	mov	r2, r3
 80002c2:	68fb      	ldr	r3, [r7, #12]
 80002c4:	4313      	orrs	r3, r2
 80002c6:	60fb      	str	r3, [r7, #12]
	GPIOx->OSPEEDR = tmp;
 80002c8:	68fa      	ldr	r2, [r7, #12]
 80002ca:	687b      	ldr	r3, [r7, #4]
 80002cc:	609a      	str	r2, [r3, #8]

	tmp = GPIOx->PUPDR;
 80002ce:	687b      	ldr	r3, [r7, #4]
 80002d0:	68db      	ldr	r3, [r3, #12]
 80002d2:	60fb      	str	r3, [r7, #12]
	tmp &= ~(0x03 << pin*2);
 80002d4:	78fb      	ldrb	r3, [r7, #3]
 80002d6:	005b      	lsls	r3, r3, #1
 80002d8:	2203      	movs	r2, #3
 80002da:	fa02 f303 	lsl.w	r3, r2, r3
 80002de:	43db      	mvns	r3, r3
 80002e0:	461a      	mov	r2, r3
 80002e2:	68fb      	ldr	r3, [r7, #12]
 80002e4:	4013      	ands	r3, r2
 80002e6:	60fb      	str	r3, [r7, #12]
	tmp |= (((mode>>0) & 0x03) << (pin*2));
 80002e8:	78bb      	ldrb	r3, [r7, #2]
 80002ea:	f003 0203 	and.w	r2, r3, #3
 80002ee:	78fb      	ldrb	r3, [r7, #3]
 80002f0:	005b      	lsls	r3, r3, #1
 80002f2:	fa02 f303 	lsl.w	r3, r2, r3
 80002f6:	461a      	mov	r2, r3
 80002f8:	68fb      	ldr	r3, [r7, #12]
 80002fa:	4313      	orrs	r3, r2
 80002fc:	60fb      	str	r3, [r7, #12]
	GPIOx->PUPDR = tmp;
 80002fe:	68fa      	ldr	r2, [r7, #12]
 8000300:	687b      	ldr	r3, [r7, #4]
 8000302:	60da      	str	r2, [r3, #12]
	tmp &= ~((uint32_t)(0x0f << (pin*4)));
	tmp |= (uint32_t)(mode << (pin*4));
	*crReg = tmp;
#endif

	return true;
 8000304:	2301      	movs	r3, #1
}
 8000306:	4618      	mov	r0, r3
 8000308:	3714      	adds	r7, #20
 800030a:	46bd      	mov	sp, r7
 800030c:	f85d 7b04 	ldr.w	r7, [sp], #4
 8000310:	4770      	bx	lr

08000312 <_Z13gpioBitToggleP12GPIO_TypeDefh>:
#endif
	}
}

void gpioBitToggle(GPIO_TypeDef * const __restrict__ GPIOx, PinNumber gpio_pin)
{
 8000312:	b480      	push	{r7}
 8000314:	b083      	sub	sp, #12
 8000316:	af00      	add	r7, sp, #0
 8000318:	6078      	str	r0, [r7, #4]
 800031a:	460b      	mov	r3, r1
 800031c:	70fb      	strb	r3, [r7, #3]
  GPIOx->ODR ^= 1 << gpio_pin;
 800031e:	687b      	ldr	r3, [r7, #4]
 8000320:	695b      	ldr	r3, [r3, #20]
 8000322:	78fa      	ldrb	r2, [r7, #3]
 8000324:	2101      	movs	r1, #1
 8000326:	fa01 f202 	lsl.w	r2, r1, r2
 800032a:	405a      	eors	r2, r3
 800032c:	687b      	ldr	r3, [r7, #4]
 800032e:	615a      	str	r2, [r3, #20]
}
 8000330:	bf00      	nop
 8000332:	370c      	adds	r7, #12
 8000334:	46bd      	mov	sp, r7
 8000336:	f85d 7b04 	ldr.w	r7, [sp], #4
 800033a:	4770      	bx	lr

0800033c <NVIC_SetPriority>:

    \param [in]      IRQn  Interrupt number.
    \param [in]  priority  Priority to set.
 */
__STATIC_INLINE void NVIC_SetPriority(IRQn_Type IRQn, uint32_t priority)
{
 800033c:	b480      	push	{r7}
 800033e:	b083      	sub	sp, #12
 8000340:	af00      	add	r7, sp, #0
 8000342:	4603      	mov	r3, r0
 8000344:	6039      	str	r1, [r7, #0]
 8000346:	71fb      	strb	r3, [r7, #7]
  if(IRQn < 0) {
 8000348:	f997 3007 	ldrsb.w	r3, [r7, #7]
 800034c:	2b00      	cmp	r3, #0
 800034e:	da0b      	bge.n	8000368 <NVIC_SetPriority+0x2c>
    SCB->SHP[((uint32_t)(IRQn) & 0xF)-4] = ((priority << (8 - __NVIC_PRIO_BITS)) & 0xff); } /* set Priority for Cortex-M  System Interrupts */
 8000350:	490d      	ldr	r1, [pc, #52]	; (8000388 <NVIC_SetPriority+0x4c>)
 8000352:	79fb      	ldrb	r3, [r7, #7]
 8000354:	f003 030f 	and.w	r3, r3, #15
 8000358:	3b04      	subs	r3, #4
 800035a:	683a      	ldr	r2, [r7, #0]
 800035c:	b2d2      	uxtb	r2, r2
 800035e:	0112      	lsls	r2, r2, #4
 8000360:	b2d2      	uxtb	r2, r2
 8000362:	440b      	add	r3, r1
 8000364:	761a      	strb	r2, [r3, #24]
  else {
    NVIC->IP[(uint32_t)(IRQn)] = ((priority << (8 - __NVIC_PRIO_BITS)) & 0xff);    }        /* set Priority for device specific Interrupts  */
}
 8000366:	e009      	b.n	800037c <NVIC_SetPriority+0x40>
    NVIC->IP[(uint32_t)(IRQn)] = ((priority << (8 - __NVIC_PRIO_BITS)) & 0xff);    }        /* set Priority for device specific Interrupts  */
 8000368:	4908      	ldr	r1, [pc, #32]	; (800038c <NVIC_SetPriority+0x50>)
 800036a:	f997 3007 	ldrsb.w	r3, [r7, #7]
 800036e:	683a      	ldr	r2, [r7, #0]
 8000370:	b2d2      	uxtb	r2, r2
 8000372:	0112      	lsls	r2, r2, #4
 8000374:	b2d2      	uxtb	r2, r2
 8000376:	440b      	add	r3, r1
 8000378:	f883 2300 	strb.w	r2, [r3, #768]	; 0x300
}
 800037c:	bf00      	nop
 800037e:	370c      	adds	r7, #12
 8000380:	46bd      	mov	sp, r7
 8000382:	f85d 7b04 	ldr.w	r7, [sp], #4
 8000386:	4770      	bx	lr
 8000388:	e000ed00 	.word	0xe000ed00
 800038c:	e000e100 	.word	0xe000e100

08000390 <SysTick_Config>:
    function <b>SysTick_Config</b> is not included. In this case, the file <b><i>device</i>.h</b>
    must contain a vendor-specific implementation of this function.

 */
__STATIC_INLINE uint32_t SysTick_Config(uint32_t ticks)
{
 8000390:	b580      	push	{r7, lr}
 8000392:	b082      	sub	sp, #8
 8000394:	af00      	add	r7, sp, #0
 8000396:	6078      	str	r0, [r7, #4]
  if ((ticks - 1) > SysTick_LOAD_RELOAD_Msk)  return (1);      /* Reload value impossible */
 8000398:	687b      	ldr	r3, [r7, #4]
 800039a:	3b01      	subs	r3, #1
 800039c:	f1b3 7f80 	cmp.w	r3, #16777216	; 0x1000000
 80003a0:	d301      	bcc.n	80003a6 <SysTick_Config+0x16>
 80003a2:	2301      	movs	r3, #1
 80003a4:	e00f      	b.n	80003c6 <SysTick_Config+0x36>

  SysTick->LOAD  = ticks - 1;                                  /* set reload register */
 80003a6:	4a0a      	ldr	r2, [pc, #40]	; (80003d0 <SysTick_Config+0x40>)
 80003a8:	687b      	ldr	r3, [r7, #4]
 80003aa:	3b01      	subs	r3, #1
 80003ac:	6053      	str	r3, [r2, #4]
  NVIC_SetPriority (SysTick_IRQn, (1<<__NVIC_PRIO_BITS) - 1);  /* set Priority for Systick Interrupt */
 80003ae:	210f      	movs	r1, #15
 80003b0:	f04f 30ff 	mov.w	r0, #4294967295
 80003b4:	f7ff ffc2 	bl	800033c <NVIC_SetPriority>
  SysTick->VAL   = 0;                                          /* Load the SysTick Counter Value */
 80003b8:	4b05      	ldr	r3, [pc, #20]	; (80003d0 <SysTick_Config+0x40>)
 80003ba:	2200      	movs	r2, #0
 80003bc:	609a      	str	r2, [r3, #8]
  SysTick->CTRL  = SysTick_CTRL_CLKSOURCE_Msk |
 80003be:	4b04      	ldr	r3, [pc, #16]	; (80003d0 <SysTick_Config+0x40>)
 80003c0:	2207      	movs	r2, #7
 80003c2:	601a      	str	r2, [r3, #0]
                   SysTick_CTRL_TICKINT_Msk   |
                   SysTick_CTRL_ENABLE_Msk;                    /* Enable SysTick IRQ and SysTick Timer */
  return (0);                                                  /* Function successful */
 80003c4:	2300      	movs	r3, #0
}
 80003c6:	4618      	mov	r0, r3
 80003c8:	3708      	adds	r7, #8
 80003ca:	46bd      	mov	sp, r7
 80003cc:	bd80      	pop	{r7, pc}
 80003ce:	bf00      	nop
 80003d0:	e000e010 	.word	0xe000e010

080003d4 <schedulerInitialize>:
volatile SchedulerTick systemTickCnt = 0;
TaskData *idleTaskHook;


SchedulerResult schedulerInitialize( const uint16_t sample )
{
 80003d4:	b580      	push	{r7, lr}
 80003d6:	b082      	sub	sp, #8
 80003d8:	af00      	add	r7, sp, #0
 80003da:	4603      	mov	r3, r0
 80003dc:	80fb      	strh	r3, [r7, #6]
	if( schedulerClockInitialize(sample) )
 80003de:	88fb      	ldrh	r3, [r7, #6]
 80003e0:	4618      	mov	r0, r3
 80003e2:	f000 f8b7 	bl	8000554 <schedulerClockInitialize>
 80003e6:	4603      	mov	r3, r0
 80003e8:	2b00      	cmp	r3, #0
 80003ea:	d001      	beq.n	80003f0 <schedulerInitialize+0x1c>
	{
		return CLOCK_ERROR;
 80003ec:	2301      	movs	r3, #1
 80003ee:	e027      	b.n	8000440 <schedulerInitialize+0x6c>
	}

	idleTaskHook = ( TaskData* )malloc( sizeof( TaskData ) );
 80003f0:	2014      	movs	r0, #20
 80003f2:	f000 fa3d 	bl	8000870 <malloc>
 80003f6:	4603      	mov	r3, r0
 80003f8:	461a      	mov	r2, r3
 80003fa:	4b13      	ldr	r3, [pc, #76]	; (8000448 <schedulerInitialize+0x74>)
 80003fc:	601a      	str	r2, [r3, #0]

	if( NULL == idleTaskHook )
 80003fe:	4b12      	ldr	r3, [pc, #72]	; (8000448 <schedulerInitialize+0x74>)
 8000400:	681b      	ldr	r3, [r3, #0]
 8000402:	2b00      	cmp	r3, #0
 8000404:	d101      	bne.n	800040a <schedulerInitialize+0x36>
	{
		return CREATE_ERROR;
 8000406:	2302      	movs	r3, #2
 8000408:	e01a      	b.n	8000440 <schedulerInitialize+0x6c>
	}

	idleTaskHook->task = schedulerIdleTask;
 800040a:	4b0f      	ldr	r3, [pc, #60]	; (8000448 <schedulerInitialize+0x74>)
 800040c:	681b      	ldr	r3, [r3, #0]
 800040e:	4a0f      	ldr	r2, [pc, #60]	; (800044c <schedulerInitialize+0x78>)
 8000410:	605a      	str	r2, [r3, #4]
	idleTaskHook->priority = 0;
 8000412:	4b0d      	ldr	r3, [pc, #52]	; (8000448 <schedulerInitialize+0x74>)
 8000414:	681b      	ldr	r3, [r3, #0]
 8000416:	2200      	movs	r2, #0
 8000418:	721a      	strb	r2, [r3, #8]
	idleTaskHook->status = TASK_AWAIT;
 800041a:	4b0b      	ldr	r3, [pc, #44]	; (8000448 <schedulerInitialize+0x74>)
 800041c:	681b      	ldr	r3, [r3, #0]
 800041e:	2202      	movs	r2, #2
 8000420:	725a      	strb	r2, [r3, #9]
	idleTaskHook->delay = 1000;
 8000422:	4b09      	ldr	r3, [pc, #36]	; (8000448 <schedulerInitialize+0x74>)
 8000424:	681b      	ldr	r3, [r3, #0]
 8000426:	f44f 727a 	mov.w	r2, #1000	; 0x3e8
 800042a:	60da      	str	r2, [r3, #12]
	idleTaskHook->period = 1000;
 800042c:	4b06      	ldr	r3, [pc, #24]	; (8000448 <schedulerInitialize+0x74>)
 800042e:	681b      	ldr	r3, [r3, #0]
 8000430:	f44f 727a 	mov.w	r2, #1000	; 0x3e8
 8000434:	611a      	str	r2, [r3, #16]
	idleTaskHook->nextTask = NULL;
 8000436:	4b04      	ldr	r3, [pc, #16]	; (8000448 <schedulerInitialize+0x74>)
 8000438:	681b      	ldr	r3, [r3, #0]
 800043a:	2200      	movs	r2, #0
 800043c:	601a      	str	r2, [r3, #0]

	return ALL_OK;
 800043e:	2300      	movs	r3, #0
}
 8000440:	4618      	mov	r0, r3
 8000442:	3708      	adds	r7, #8
 8000444:	46bd      	mov	sp, r7
 8000446:	bd80      	pop	{r7, pc}
 8000448:	20000094 	.word	0x20000094
 800044c:	08000545 	.word	0x08000545

08000450 <schedulerCreateTask>:

SchedulerResult schedulerCreateTask( const TaskPointer task, const TaskTime period, const TaskPriority priority)
{
 8000450:	b580      	push	{r7, lr}
 8000452:	b086      	sub	sp, #24
 8000454:	af00      	add	r7, sp, #0
 8000456:	60f8      	str	r0, [r7, #12]
 8000458:	60b9      	str	r1, [r7, #8]
 800045a:	4613      	mov	r3, r2
 800045c:	71fb      	strb	r3, [r7, #7]
	if( NULL == task )
 800045e:	68fb      	ldr	r3, [r7, #12]
 8000460:	2b00      	cmp	r3, #0
 8000462:	d101      	bne.n	8000468 <schedulerCreateTask+0x18>
	{
		return CREATE_ERROR;
 8000464:	2302      	movs	r3, #2
 8000466:	e02a      	b.n	80004be <schedulerCreateTask+0x6e>
	}

	TaskData *newTaskData = ( TaskData* )malloc( sizeof( TaskData ) );
 8000468:	2014      	movs	r0, #20
 800046a:	f000 fa01 	bl	8000870 <malloc>
 800046e:	4603      	mov	r3, r0
 8000470:	613b      	str	r3, [r7, #16]

	if( NULL == newTaskData )
 8000472:	693b      	ldr	r3, [r7, #16]
 8000474:	2b00      	cmp	r3, #0
 8000476:	d101      	bne.n	800047c <schedulerCreateTask+0x2c>
	{
		return CREATE_ERROR;
 8000478:	2302      	movs	r3, #2
 800047a:	e020      	b.n	80004be <schedulerCreateTask+0x6e>
	}

	newTaskData->task = task;
 800047c:	693b      	ldr	r3, [r7, #16]
 800047e:	68fa      	ldr	r2, [r7, #12]
 8000480:	605a      	str	r2, [r3, #4]
	newTaskData->priority = priority;
 8000482:	693b      	ldr	r3, [r7, #16]
 8000484:	79fa      	ldrb	r2, [r7, #7]
 8000486:	721a      	strb	r2, [r3, #8]
	newTaskData->status = TASK_AWAIT;
 8000488:	693b      	ldr	r3, [r7, #16]
 800048a:	2202      	movs	r2, #2
 800048c:	725a      	strb	r2, [r3, #9]
	newTaskData->delay = period;
 800048e:	693b      	ldr	r3, [r7, #16]
 8000490:	68ba      	ldr	r2, [r7, #8]
 8000492:	60da      	str	r2, [r3, #12]
	newTaskData->period	= period;
 8000494:	693b      	ldr	r3, [r7, #16]
 8000496:	68ba      	ldr	r2, [r7, #8]
 8000498:	611a      	str	r2, [r3, #16]
	newTaskData->nextTask = NULL;
 800049a:	693b      	ldr	r3, [r7, #16]
 800049c:	2200      	movs	r2, #0
 800049e:	601a      	str	r2, [r3, #0]

	TaskData *tmp = idleTaskHook;
 80004a0:	4b09      	ldr	r3, [pc, #36]	; (80004c8 <schedulerCreateTask+0x78>)
 80004a2:	681b      	ldr	r3, [r3, #0]
 80004a4:	617b      	str	r3, [r7, #20]

	while( NULL != tmp->nextTask)
 80004a6:	e002      	b.n	80004ae <schedulerCreateTask+0x5e>
	{
		tmp = tmp->nextTask;
 80004a8:	697b      	ldr	r3, [r7, #20]
 80004aa:	681b      	ldr	r3, [r3, #0]
 80004ac:	617b      	str	r3, [r7, #20]
	while( NULL != tmp->nextTask)
 80004ae:	697b      	ldr	r3, [r7, #20]
 80004b0:	681b      	ldr	r3, [r3, #0]
 80004b2:	2b00      	cmp	r3, #0
 80004b4:	d1f8      	bne.n	80004a8 <schedulerCreateTask+0x58>
	}

	tmp->nextTask = newTaskData;
 80004b6:	697b      	ldr	r3, [r7, #20]
 80004b8:	693a      	ldr	r2, [r7, #16]
 80004ba:	601a      	str	r2, [r3, #0]

	return ALL_OK;
 80004bc:	2300      	movs	r3, #0
}
 80004be:	4618      	mov	r0, r3
 80004c0:	3718      	adds	r7, #24
 80004c2:	46bd      	mov	sp, r7
 80004c4:	bd80      	pop	{r7, pc}
 80004c6:	bf00      	nop
 80004c8:	20000094 	.word	0x20000094

080004cc <schedulerGetTickCounter>:

	return tmp->delay;
}

SchedulerTick schedulerGetTickCounter( void )
{
 80004cc:	b480      	push	{r7}
 80004ce:	af00      	add	r7, sp, #0
	return systemTickCnt;
 80004d0:	4b03      	ldr	r3, [pc, #12]	; (80004e0 <schedulerGetTickCounter+0x14>)
 80004d2:	681b      	ldr	r3, [r3, #0]
}
 80004d4:	4618      	mov	r0, r3
 80004d6:	46bd      	mov	sp, r7
 80004d8:	f85d 7b04 	ldr.w	r7, [sp], #4
 80004dc:	4770      	bx	lr
 80004de:	bf00      	nop
 80004e0:	20000084 	.word	0x20000084

080004e4 <schedulerStart>:

void schedulerStart( void )
{
 80004e4:	b580      	push	{r7, lr}
 80004e6:	b084      	sub	sp, #16
 80004e8:	af00      	add	r7, sp, #0
	TaskData *taskToExecute;
	TaskData *tmp;

	while(1)
	{
		highestPriority = 0;
 80004ea:	2300      	movs	r3, #0
 80004ec:	73fb      	strb	r3, [r7, #15]
		taskToExecute = NULL;
 80004ee:	2300      	movs	r3, #0
 80004f0:	60bb      	str	r3, [r7, #8]
		tmp = idleTaskHook;
 80004f2:	4b13      	ldr	r3, [pc, #76]	; (8000540 <schedulerStart+0x5c>)
 80004f4:	681b      	ldr	r3, [r3, #0]
 80004f6:	607b      	str	r3, [r7, #4]

		do
		{
			if( TASK_READY_TO_HANDLE == tmp->status && highestPriority <= tmp->priority)
 80004f8:	687b      	ldr	r3, [r7, #4]
 80004fa:	7a5b      	ldrb	r3, [r3, #9]
 80004fc:	b2db      	uxtb	r3, r3
 80004fe:	2b03      	cmp	r3, #3
 8000500:	d109      	bne.n	8000516 <schedulerStart+0x32>
 8000502:	687b      	ldr	r3, [r7, #4]
 8000504:	7a1b      	ldrb	r3, [r3, #8]
 8000506:	7bfa      	ldrb	r2, [r7, #15]
 8000508:	429a      	cmp	r2, r3
 800050a:	d804      	bhi.n	8000516 <schedulerStart+0x32>
			{
				highestPriority = tmp->priority;
 800050c:	687b      	ldr	r3, [r7, #4]
 800050e:	7a1b      	ldrb	r3, [r3, #8]
 8000510:	73fb      	strb	r3, [r7, #15]
				taskToExecute = tmp;
 8000512:	687b      	ldr	r3, [r7, #4]
 8000514:	60bb      	str	r3, [r7, #8]
			}

			tmp = tmp->nextTask;
 8000516:	687b      	ldr	r3, [r7, #4]
 8000518:	681b      	ldr	r3, [r3, #0]
 800051a:	607b      	str	r3, [r7, #4]
		} while( NULL != tmp);
 800051c:	687b      	ldr	r3, [r7, #4]
 800051e:	2b00      	cmp	r3, #0
 8000520:	d1ea      	bne.n	80004f8 <schedulerStart+0x14>

		if( NULL != taskToExecute )
 8000522:	68bb      	ldr	r3, [r7, #8]
 8000524:	2b00      	cmp	r3, #0
 8000526:	d0e0      	beq.n	80004ea <schedulerStart+0x6>
		{
			taskToExecute->delay = taskToExecute->period;
 8000528:	68bb      	ldr	r3, [r7, #8]
 800052a:	691a      	ldr	r2, [r3, #16]
 800052c:	68bb      	ldr	r3, [r7, #8]
 800052e:	60da      	str	r2, [r3, #12]
			taskToExecute->status = TASK_AWAIT;
 8000530:	68bb      	ldr	r3, [r7, #8]
 8000532:	2202      	movs	r2, #2
 8000534:	725a      	strb	r2, [r3, #9]
			taskToExecute->task();
 8000536:	68bb      	ldr	r3, [r7, #8]
 8000538:	685b      	ldr	r3, [r3, #4]
 800053a:	4798      	blx	r3
		highestPriority = 0;
 800053c:	e7d5      	b.n	80004ea <schedulerStart+0x6>
 800053e:	bf00      	nop
 8000540:	20000094 	.word	0x20000094

08000544 <schedulerIdleTask>:
		}
	}
}

void schedulerIdleTask (void)
{
 8000544:	b480      	push	{r7}
 8000546:	af00      	add	r7, sp, #0

}
 8000548:	bf00      	nop
 800054a:	46bd      	mov	sp, r7
 800054c:	f85d 7b04 	ldr.w	r7, [sp], #4
 8000550:	4770      	bx	lr
	...

08000554 <schedulerClockInitialize>:

/**************************************** Timers ****************************************/

SchedulerResult schedulerClockInitialize( const uint16_t sample )
{
 8000554:	b580      	push	{r7, lr}
 8000556:	b082      	sub	sp, #8
 8000558:	af00      	add	r7, sp, #0
 800055a:	4603      	mov	r3, r0
 800055c:	80fb      	strh	r3, [r7, #6]
	if (SysTick_Config(SystemCoreClock / sample))
 800055e:	4b09      	ldr	r3, [pc, #36]	; (8000584 <schedulerClockInitialize+0x30>)
 8000560:	681a      	ldr	r2, [r3, #0]
 8000562:	88fb      	ldrh	r3, [r7, #6]
 8000564:	fbb2 f3f3 	udiv	r3, r2, r3
 8000568:	4618      	mov	r0, r3
 800056a:	f7ff ff11 	bl	8000390 <SysTick_Config>
 800056e:	4603      	mov	r3, r0
 8000570:	2b00      	cmp	r3, #0
 8000572:	d001      	beq.n	8000578 <schedulerClockInitialize+0x24>
	{
		return CLOCK_ERROR;
 8000574:	2301      	movs	r3, #1
 8000576:	e000      	b.n	800057a <schedulerClockInitialize+0x26>
	}

	return ALL_OK;
 8000578:	2300      	movs	r3, #0
}
 800057a:	4618      	mov	r0, r3
 800057c:	3708      	adds	r7, #8
 800057e:	46bd      	mov	sp, r7
 8000580:	bd80      	pop	{r7, pc}
 8000582:	bf00      	nop
 8000584:	20000000 	.word	0x20000000

08000588 <SysTick_Handler>:

void SysTick_Handler(void)
{
 8000588:	b480      	push	{r7}
 800058a:	b083      	sub	sp, #12
 800058c:	af00      	add	r7, sp, #0
	systemTickCnt++;
 800058e:	4b13      	ldr	r3, [pc, #76]	; (80005dc <SysTick_Handler+0x54>)
 8000590:	681b      	ldr	r3, [r3, #0]
 8000592:	3301      	adds	r3, #1
 8000594:	4a11      	ldr	r2, [pc, #68]	; (80005dc <SysTick_Handler+0x54>)
 8000596:	6013      	str	r3, [r2, #0]

	TaskData *tmp = idleTaskHook;
 8000598:	4b11      	ldr	r3, [pc, #68]	; (80005e0 <SysTick_Handler+0x58>)
 800059a:	681b      	ldr	r3, [r3, #0]
 800059c:	607b      	str	r3, [r7, #4]

	do
	{
		if( TASK_AWAIT == tmp->status)
 800059e:	687b      	ldr	r3, [r7, #4]
 80005a0:	7a5b      	ldrb	r3, [r3, #9]
 80005a2:	b2db      	uxtb	r3, r3
 80005a4:	2b02      	cmp	r3, #2
 80005a6:	d10c      	bne.n	80005c2 <SysTick_Handler+0x3a>
		{
			if(tmp->delay)
 80005a8:	687b      	ldr	r3, [r7, #4]
 80005aa:	68db      	ldr	r3, [r3, #12]
 80005ac:	2b00      	cmp	r3, #0
 80005ae:	d005      	beq.n	80005bc <SysTick_Handler+0x34>
			{
				tmp->delay--;
 80005b0:	687b      	ldr	r3, [r7, #4]
 80005b2:	68db      	ldr	r3, [r3, #12]
 80005b4:	1e5a      	subs	r2, r3, #1
 80005b6:	687b      	ldr	r3, [r7, #4]
 80005b8:	60da      	str	r2, [r3, #12]
 80005ba:	e002      	b.n	80005c2 <SysTick_Handler+0x3a>
			}
			else
			{
				tmp->status = TASK_READY_TO_HANDLE;
 80005bc:	687b      	ldr	r3, [r7, #4]
 80005be:	2203      	movs	r2, #3
 80005c0:	725a      	strb	r2, [r3, #9]
			}
		}

		tmp = tmp->nextTask;
 80005c2:	687b      	ldr	r3, [r7, #4]
 80005c4:	681b      	ldr	r3, [r3, #0]
 80005c6:	607b      	str	r3, [r7, #4]
	} while( NULL != tmp);
 80005c8:	687b      	ldr	r3, [r7, #4]
 80005ca:	2b00      	cmp	r3, #0
 80005cc:	d1e7      	bne.n	800059e <SysTick_Handler+0x16>
}
 80005ce:	bf00      	nop
 80005d0:	370c      	adds	r7, #12
 80005d2:	46bd      	mov	sp, r7
 80005d4:	f85d 7b04 	ldr.w	r7, [sp], #4
 80005d8:	4770      	bx	lr
 80005da:	bf00      	nop
 80005dc:	20000084 	.word	0x20000084
 80005e0:	20000094 	.word	0x20000094

080005e4 <_Z11testowyTaskv>:
#include "main.h"
#include "BloedeBleidd_Libraries/bloedebleidd_libraries.h"
#include "TASK_MANAGER/taskmanager.h"

void testowyTask (void)
{
 80005e4:	b580      	push	{r7, lr}
 80005e6:	b082      	sub	sp, #8
 80005e8:	af00      	add	r7, sp, #0
	volatile SchedulerTick sysTick;
	sysTick = schedulerGetTickCounter();
 80005ea:	f7ff ff6f 	bl	80004cc <schedulerGetTickCounter>
 80005ee:	4603      	mov	r3, r0
 80005f0:	607b      	str	r3, [r7, #4]

	sysTick += 1;
 80005f2:	687b      	ldr	r3, [r7, #4]
 80005f4:	3301      	adds	r3, #1
 80005f6:	607b      	str	r3, [r7, #4]
}
 80005f8:	bf00      	nop
 80005fa:	3708      	adds	r7, #8
 80005fc:	46bd      	mov	sp, r7
 80005fe:	bd80      	pop	{r7, pc}

08000600 <_Z9jakiesCosv>:

void jakiesCos (void)
{
 8000600:	b580      	push	{r7, lr}
 8000602:	b082      	sub	sp, #8
 8000604:	af00      	add	r7, sp, #0
	volatile SchedulerTick sysTick;
	sysTick = schedulerGetTickCounter();
 8000606:	f7ff ff61 	bl	80004cc <schedulerGetTickCounter>
 800060a:	4603      	mov	r3, r0
 800060c:	607b      	str	r3, [r7, #4]

	sysTick += 1;
 800060e:	687b      	ldr	r3, [r7, #4]
 8000610:	3301      	adds	r3, #1
 8000612:	607b      	str	r3, [r7, #4]

	gpioBitToggle(LED_RED_GPIO, LED_RED_PIN);
 8000614:	210e      	movs	r1, #14
 8000616:	4803      	ldr	r0, [pc, #12]	; (8000624 <_Z9jakiesCosv+0x24>)
 8000618:	f7ff fe7b 	bl	8000312 <_Z13gpioBitToggleP12GPIO_TypeDefh>
}
 800061c:	bf00      	nop
 800061e:	3708      	adds	r7, #8
 8000620:	46bd      	mov	sp, r7
 8000622:	bd80      	pop	{r7, pc}
 8000624:	40021800 	.word	0x40021800

08000628 <main>:


int main(void)
{
 8000628:	b580      	push	{r7, lr}
 800062a:	af00      	add	r7, sp, #0
	gpioInitialize();
 800062c:	f7ff fdde 	bl	80001ec <_Z14gpioInitializev>
	gpioPinConfiguration(LED_RED_GPIO, LED_RED_PIN, GPIO_MODE_OUTPUT_PUSH_PULL_LOW_SPEED);
 8000630:	2220      	movs	r2, #32
 8000632:	210e      	movs	r1, #14
 8000634:	480b      	ldr	r0, [pc, #44]	; (8000664 <main+0x3c>)
 8000636:	f7ff fdeb 	bl	8000210 <_Z20gpioPinConfigurationP12GPIO_TypeDefh8GpioMode>
	schedulerInitialize(1000);
 800063a:	f44f 707a 	mov.w	r0, #1000	; 0x3e8
 800063e:	f7ff fec9 	bl	80003d4 <schedulerInitialize>

	schedulerCreateTask(testowyTask, 1000, 1);
 8000642:	2201      	movs	r2, #1
 8000644:	f44f 717a 	mov.w	r1, #1000	; 0x3e8
 8000648:	4807      	ldr	r0, [pc, #28]	; (8000668 <main+0x40>)
 800064a:	f7ff ff01 	bl	8000450 <schedulerCreateTask>
	schedulerCreateTask(jakiesCos, 500, 2);
 800064e:	2202      	movs	r2, #2
 8000650:	f44f 71fa 	mov.w	r1, #500	; 0x1f4
 8000654:	4805      	ldr	r0, [pc, #20]	; (800066c <main+0x44>)
 8000656:	f7ff fefb 	bl	8000450 <schedulerCreateTask>

	schedulerStart();
 800065a:	f7ff ff43 	bl	80004e4 <schedulerStart>

}
 800065e:	2300      	movs	r3, #0
 8000660:	4618      	mov	r0, r3
 8000662:	bd80      	pop	{r7, pc}
 8000664:	40021800 	.word	0x40021800
 8000668:	080005e5 	.word	0x080005e5
 800066c:	08000601 	.word	0x08000601

08000670 <Reset_Handler>:

    .section  .text.Reset_Handler
  .weak  Reset_Handler
  .type  Reset_Handler, %function
Reset_Handler:  
  ldr   sp, =_estack    /* Atollic update: set stack pointer */
 8000670:	f8df d034 	ldr.w	sp, [pc, #52]	; 80006a8 <LoopFillZerobss+0x14>
  
/* Copy the data segment initializers from flash to SRAM */  
  movs  r1, #0
 8000674:	2100      	movs	r1, #0
  b  LoopCopyDataInit
 8000676:	e003      	b.n	8000680 <LoopCopyDataInit>

08000678 <CopyDataInit>:

CopyDataInit:
  ldr  r3, =_sidata
 8000678:	4b0c      	ldr	r3, [pc, #48]	; (80006ac <LoopFillZerobss+0x18>)
  ldr  r3, [r3, r1]
 800067a:	585b      	ldr	r3, [r3, r1]
  str  r3, [r0, r1]
 800067c:	5043      	str	r3, [r0, r1]
  adds  r1, r1, #4
 800067e:	3104      	adds	r1, #4

08000680 <LoopCopyDataInit>:
    
LoopCopyDataInit:
  ldr  r0, =_sdata
 8000680:	480b      	ldr	r0, [pc, #44]	; (80006b0 <LoopFillZerobss+0x1c>)
  ldr  r3, =_edata
 8000682:	4b0c      	ldr	r3, [pc, #48]	; (80006b4 <LoopFillZerobss+0x20>)
  adds  r2, r0, r1
 8000684:	1842      	adds	r2, r0, r1
  cmp  r2, r3
 8000686:	429a      	cmp	r2, r3
  bcc  CopyDataInit
 8000688:	d3f6      	bcc.n	8000678 <CopyDataInit>
  ldr  r2, =_sbss
 800068a:	4a0b      	ldr	r2, [pc, #44]	; (80006b8 <LoopFillZerobss+0x24>)
  b  LoopFillZerobss
 800068c:	e002      	b.n	8000694 <LoopFillZerobss>

0800068e <FillZerobss>:
/* Zero fill the bss segment. */  
FillZerobss:
  movs  r3, #0
 800068e:	2300      	movs	r3, #0
  str  r3, [r2], #4
 8000690:	f842 3b04 	str.w	r3, [r2], #4

08000694 <LoopFillZerobss>:
    
LoopFillZerobss:
  ldr  r3, = _ebss
 8000694:	4b09      	ldr	r3, [pc, #36]	; (80006bc <LoopFillZerobss+0x28>)
  cmp  r2, r3
 8000696:	429a      	cmp	r2, r3
  bcc  FillZerobss
 8000698:	d3f9      	bcc.n	800068e <FillZerobss>

/* Call the clock system intitialization function.*/
  bl  SystemInit   
 800069a:	f000 f813 	bl	80006c4 <SystemInit>
/* Call static constructors */
    bl __libc_init_array
 800069e:	f000 f8c3 	bl	8000828 <__libc_init_array>
/* Call the application's entry point.*/
  bl  main
 80006a2:	f7ff ffc1 	bl	8000628 <main>
  bx  lr    
 80006a6:	4770      	bx	lr
  ldr   sp, =_estack    /* Atollic update: set stack pointer */
 80006a8:	20030000 	.word	0x20030000
  ldr  r3, =_sidata
 80006ac:	0800099c 	.word	0x0800099c
  ldr  r0, =_sdata
 80006b0:	20000000 	.word	0x20000000
  ldr  r3, =_edata
 80006b4:	20000068 	.word	0x20000068
  ldr  r2, =_sbss
 80006b8:	20000068 	.word	0x20000068
  ldr  r3, = _ebss
 80006bc:	2000009c 	.word	0x2000009c

080006c0 <ADC_IRQHandler>:
 * @retval None       
*/
    .section  .text.Default_Handler,"ax",%progbits
Default_Handler:
Infinite_Loop:
  b  Infinite_Loop
 80006c0:	e7fe      	b.n	80006c0 <ADC_IRQHandler>
	...

080006c4 <SystemInit>:
  *         SystemFrequency variable.
  * @param  None
  * @retval None
  */
void SystemInit(void)
{
 80006c4:	b580      	push	{r7, lr}
 80006c6:	af00      	add	r7, sp, #0
  /* FPU settings ------------------------------------------------------------*/
  #if (__FPU_PRESENT == 1) && (__FPU_USED == 1)
    SCB->CPACR |= ((3UL << 10*2)|(3UL << 11*2));  /* set CP10 and CP11 Full Access */
 80006c8:	4a16      	ldr	r2, [pc, #88]	; (8000724 <SystemInit+0x60>)
 80006ca:	4b16      	ldr	r3, [pc, #88]	; (8000724 <SystemInit+0x60>)
 80006cc:	f8d3 3088 	ldr.w	r3, [r3, #136]	; 0x88
 80006d0:	f443 0370 	orr.w	r3, r3, #15728640	; 0xf00000
 80006d4:	f8c2 3088 	str.w	r3, [r2, #136]	; 0x88
  #endif
  /* Reset the RCC clock configuration to the default reset state ------------*/
  /* Set HSION bit */
  RCC->CR |= (uint32_t)0x00000001;
 80006d8:	4a13      	ldr	r2, [pc, #76]	; (8000728 <SystemInit+0x64>)
 80006da:	4b13      	ldr	r3, [pc, #76]	; (8000728 <SystemInit+0x64>)
 80006dc:	681b      	ldr	r3, [r3, #0]
 80006de:	f043 0301 	orr.w	r3, r3, #1
 80006e2:	6013      	str	r3, [r2, #0]

  /* Reset CFGR register */
  RCC->CFGR = 0x00000000;
 80006e4:	4b10      	ldr	r3, [pc, #64]	; (8000728 <SystemInit+0x64>)
 80006e6:	2200      	movs	r2, #0
 80006e8:	609a      	str	r2, [r3, #8]

  /* Reset HSEON, CSSON and PLLON bits */
  RCC->CR &= (uint32_t)0xFEF6FFFF;
 80006ea:	4a0f      	ldr	r2, [pc, #60]	; (8000728 <SystemInit+0x64>)
 80006ec:	4b0e      	ldr	r3, [pc, #56]	; (8000728 <SystemInit+0x64>)
 80006ee:	681b      	ldr	r3, [r3, #0]
 80006f0:	f023 7384 	bic.w	r3, r3, #17301504	; 0x1080000
 80006f4:	f423 3380 	bic.w	r3, r3, #65536	; 0x10000
 80006f8:	6013      	str	r3, [r2, #0]

  /* Reset PLLCFGR register */
  RCC->PLLCFGR = 0x24003010;
 80006fa:	4b0b      	ldr	r3, [pc, #44]	; (8000728 <SystemInit+0x64>)
 80006fc:	4a0b      	ldr	r2, [pc, #44]	; (800072c <SystemInit+0x68>)
 80006fe:	605a      	str	r2, [r3, #4]

  /* Reset HSEBYP bit */
  RCC->CR &= (uint32_t)0xFFFBFFFF;
 8000700:	4a09      	ldr	r2, [pc, #36]	; (8000728 <SystemInit+0x64>)
 8000702:	4b09      	ldr	r3, [pc, #36]	; (8000728 <SystemInit+0x64>)
 8000704:	681b      	ldr	r3, [r3, #0]
 8000706:	f423 2380 	bic.w	r3, r3, #262144	; 0x40000
 800070a:	6013      	str	r3, [r2, #0]

  /* Disable all interrupts */
  RCC->CIR = 0x00000000;
 800070c:	4b06      	ldr	r3, [pc, #24]	; (8000728 <SystemInit+0x64>)
 800070e:	2200      	movs	r2, #0
 8000710:	60da      	str	r2, [r3, #12]
  SystemInit_ExtMemCtl(); 
#endif /* DATA_IN_ExtSRAM || DATA_IN_ExtSDRAM */
         
  /* Configure the System clock source, PLL Multiplier and Divider factors, 
     AHB/APBx prescalers and Flash settings ----------------------------------*/
  SetSysClock();
 8000712:	f000 f80d 	bl	8000730 <SetSysClock>

  /* Configure the Vector Table location add offset address ------------------*/
#ifdef VECT_TAB_SRAM
  SCB->VTOR = SRAM_BASE | VECT_TAB_OFFSET; /* Vector Table Relocation in Internal SRAM */
#else
  SCB->VTOR = FLASH_BASE | VECT_TAB_OFFSET; /* Vector Table Relocation in Internal FLASH */
 8000716:	4b03      	ldr	r3, [pc, #12]	; (8000724 <SystemInit+0x60>)
 8000718:	f04f 6200 	mov.w	r2, #134217728	; 0x8000000
 800071c:	609a      	str	r2, [r3, #8]
#endif
}
 800071e:	bf00      	nop
 8000720:	bd80      	pop	{r7, pc}
 8000722:	bf00      	nop
 8000724:	e000ed00 	.word	0xe000ed00
 8000728:	40023800 	.word	0x40023800
 800072c:	24003010 	.word	0x24003010

08000730 <SetSysClock>:
  *         is reset to the default reset state (done in SystemInit() function).   
  * @param  None
  * @retval None
  */
static void SetSysClock(void)
{
 8000730:	b480      	push	{r7}
 8000732:	b083      	sub	sp, #12
 8000734:	af00      	add	r7, sp, #0
/******************************************************************************/
/*            PLL (clocked by HSE) used as System clock source                */
/******************************************************************************/
  __IO uint32_t StartUpCounter = 0, HSEStatus = 0;
 8000736:	2300      	movs	r3, #0
 8000738:	607b      	str	r3, [r7, #4]
 800073a:	2300      	movs	r3, #0
 800073c:	603b      	str	r3, [r7, #0]
  
  /* Enable HSE */
  RCC->CR |= ((uint32_t)RCC_CR_HSEON);
 800073e:	4a36      	ldr	r2, [pc, #216]	; (8000818 <SetSysClock+0xe8>)
 8000740:	4b35      	ldr	r3, [pc, #212]	; (8000818 <SetSysClock+0xe8>)
 8000742:	681b      	ldr	r3, [r3, #0]
 8000744:	f443 3380 	orr.w	r3, r3, #65536	; 0x10000
 8000748:	6013      	str	r3, [r2, #0]
 
  /* Wait till HSE is ready and if Time out is reached exit */
  do
  {
    HSEStatus = RCC->CR & RCC_CR_HSERDY;
 800074a:	4b33      	ldr	r3, [pc, #204]	; (8000818 <SetSysClock+0xe8>)
 800074c:	681b      	ldr	r3, [r3, #0]
 800074e:	f403 3300 	and.w	r3, r3, #131072	; 0x20000
 8000752:	603b      	str	r3, [r7, #0]
    StartUpCounter++;
 8000754:	687b      	ldr	r3, [r7, #4]
 8000756:	3301      	adds	r3, #1
 8000758:	607b      	str	r3, [r7, #4]
  } while((HSEStatus == 0) && (StartUpCounter != HSE_STARTUP_TIMEOUT));
 800075a:	683b      	ldr	r3, [r7, #0]
 800075c:	2b00      	cmp	r3, #0
 800075e:	d103      	bne.n	8000768 <SetSysClock+0x38>
 8000760:	687b      	ldr	r3, [r7, #4]
 8000762:	f5b3 6fa0 	cmp.w	r3, #1280	; 0x500
 8000766:	d1f0      	bne.n	800074a <SetSysClock+0x1a>

  if ((RCC->CR & RCC_CR_HSERDY) != RESET)
 8000768:	4b2b      	ldr	r3, [pc, #172]	; (8000818 <SetSysClock+0xe8>)
 800076a:	681b      	ldr	r3, [r3, #0]
 800076c:	f403 3300 	and.w	r3, r3, #131072	; 0x20000
 8000770:	2b00      	cmp	r3, #0
 8000772:	d002      	beq.n	800077a <SetSysClock+0x4a>
  {
    HSEStatus = (uint32_t)0x01;
 8000774:	2301      	movs	r3, #1
 8000776:	603b      	str	r3, [r7, #0]
 8000778:	e001      	b.n	800077e <SetSysClock+0x4e>
  }
  else
  {
    HSEStatus = (uint32_t)0x00;
 800077a:	2300      	movs	r3, #0
 800077c:	603b      	str	r3, [r7, #0]
  }

  if (HSEStatus == (uint32_t)0x01)
 800077e:	683b      	ldr	r3, [r7, #0]
 8000780:	2b01      	cmp	r3, #1
 8000782:	d142      	bne.n	800080a <SetSysClock+0xda>
  {
    /* Select regulator voltage output Scale 1 mode */
    RCC->APB1ENR |= RCC_APB1ENR_PWREN;
 8000784:	4a24      	ldr	r2, [pc, #144]	; (8000818 <SetSysClock+0xe8>)
 8000786:	4b24      	ldr	r3, [pc, #144]	; (8000818 <SetSysClock+0xe8>)
 8000788:	6c1b      	ldr	r3, [r3, #64]	; 0x40
 800078a:	f043 5380 	orr.w	r3, r3, #268435456	; 0x10000000
 800078e:	6413      	str	r3, [r2, #64]	; 0x40
    PWR->CR |= PWR_CR_VOS;
 8000790:	4a22      	ldr	r2, [pc, #136]	; (800081c <SetSysClock+0xec>)
 8000792:	4b22      	ldr	r3, [pc, #136]	; (800081c <SetSysClock+0xec>)
 8000794:	681b      	ldr	r3, [r3, #0]
 8000796:	f443 4340 	orr.w	r3, r3, #49152	; 0xc000
 800079a:	6013      	str	r3, [r2, #0]

    /* HCLK = SYSCLK / 1*/
    RCC->CFGR |= RCC_CFGR_HPRE_DIV1;
 800079c:	4a1e      	ldr	r2, [pc, #120]	; (8000818 <SetSysClock+0xe8>)
 800079e:	4b1e      	ldr	r3, [pc, #120]	; (8000818 <SetSysClock+0xe8>)
 80007a0:	689b      	ldr	r3, [r3, #8]
 80007a2:	6093      	str	r3, [r2, #8]

#if defined (STM32F40_41xxx) || defined (STM32F42_43xxx)      
    /* PCLK2 = HCLK / 2*/
    RCC->CFGR |= RCC_CFGR_PPRE2_DIV2;
 80007a4:	4a1c      	ldr	r2, [pc, #112]	; (8000818 <SetSysClock+0xe8>)
 80007a6:	4b1c      	ldr	r3, [pc, #112]	; (8000818 <SetSysClock+0xe8>)
 80007a8:	689b      	ldr	r3, [r3, #8]
 80007aa:	f443 4300 	orr.w	r3, r3, #32768	; 0x8000
 80007ae:	6093      	str	r3, [r2, #8]
    
    /* PCLK1 = HCLK / 4*/
    RCC->CFGR |= RCC_CFGR_PPRE1_DIV4;
 80007b0:	4a19      	ldr	r2, [pc, #100]	; (8000818 <SetSysClock+0xe8>)
 80007b2:	4b19      	ldr	r3, [pc, #100]	; (8000818 <SetSysClock+0xe8>)
 80007b4:	689b      	ldr	r3, [r3, #8]
 80007b6:	f443 53a0 	orr.w	r3, r3, #5120	; 0x1400
 80007ba:	6093      	str	r3, [r2, #8]
    /* PCLK1 = HCLK / 4*/
    RCC->CFGR |= RCC_CFGR_PPRE1_DIV2;
#endif /* STM32F401xx */
   
    /* Configure the main PLL */
    RCC->PLLCFGR = PLL_M | (PLL_N << 6) | (((PLL_P >> 1) -1) << 16) |
 80007bc:	4b16      	ldr	r3, [pc, #88]	; (8000818 <SetSysClock+0xe8>)
 80007be:	4a18      	ldr	r2, [pc, #96]	; (8000820 <SetSysClock+0xf0>)
 80007c0:	605a      	str	r2, [r3, #4]
                   (RCC_PLLCFGR_PLLSRC_HSE) | (PLL_Q << 24);

    /* Enable the main PLL */
    RCC->CR |= RCC_CR_PLLON;
 80007c2:	4a15      	ldr	r2, [pc, #84]	; (8000818 <SetSysClock+0xe8>)
 80007c4:	4b14      	ldr	r3, [pc, #80]	; (8000818 <SetSysClock+0xe8>)
 80007c6:	681b      	ldr	r3, [r3, #0]
 80007c8:	f043 7380 	orr.w	r3, r3, #16777216	; 0x1000000
 80007cc:	6013      	str	r3, [r2, #0]

    /* Wait till the main PLL is ready */
    while((RCC->CR & RCC_CR_PLLRDY) == 0)
 80007ce:	bf00      	nop
 80007d0:	4b11      	ldr	r3, [pc, #68]	; (8000818 <SetSysClock+0xe8>)
 80007d2:	681b      	ldr	r3, [r3, #0]
 80007d4:	f003 7300 	and.w	r3, r3, #33554432	; 0x2000000
 80007d8:	2b00      	cmp	r3, #0
 80007da:	d0f9      	beq.n	80007d0 <SetSysClock+0xa0>
    {
    }
   
#if defined (STM32F40_41xxx) || defined (STM32F42_43xxx)      
    /* Configure Flash prefetch, Instruction cache, Data cache and wait state */
    FLASH->ACR = FLASH_ACR_PRFTEN | FLASH_ACR_ICEN |FLASH_ACR_DCEN |FLASH_ACR_LATENCY_5WS;
 80007dc:	4b11      	ldr	r3, [pc, #68]	; (8000824 <SetSysClock+0xf4>)
 80007de:	f240 7205 	movw	r2, #1797	; 0x705
 80007e2:	601a      	str	r2, [r3, #0]
    /* Configure Flash prefetch, Instruction cache, Data cache and wait state */
    FLASH->ACR = FLASH_ACR_PRFTEN | FLASH_ACR_ICEN |FLASH_ACR_DCEN |FLASH_ACR_LATENCY_2WS;
#endif /* STM32F401xx */

    /* Select the main PLL as system clock source */
    RCC->CFGR &= (uint32_t)((uint32_t)~(RCC_CFGR_SW));
 80007e4:	4a0c      	ldr	r2, [pc, #48]	; (8000818 <SetSysClock+0xe8>)
 80007e6:	4b0c      	ldr	r3, [pc, #48]	; (8000818 <SetSysClock+0xe8>)
 80007e8:	689b      	ldr	r3, [r3, #8]
 80007ea:	f023 0303 	bic.w	r3, r3, #3
 80007ee:	6093      	str	r3, [r2, #8]
    RCC->CFGR |= RCC_CFGR_SW_PLL;
 80007f0:	4a09      	ldr	r2, [pc, #36]	; (8000818 <SetSysClock+0xe8>)
 80007f2:	4b09      	ldr	r3, [pc, #36]	; (8000818 <SetSysClock+0xe8>)
 80007f4:	689b      	ldr	r3, [r3, #8]
 80007f6:	f043 0302 	orr.w	r3, r3, #2
 80007fa:	6093      	str	r3, [r2, #8]

    /* Wait till the main PLL is used as system clock source */
    while ((RCC->CFGR & (uint32_t)RCC_CFGR_SWS ) != RCC_CFGR_SWS_PLL)
 80007fc:	bf00      	nop
 80007fe:	4b06      	ldr	r3, [pc, #24]	; (8000818 <SetSysClock+0xe8>)
 8000800:	689b      	ldr	r3, [r3, #8]
 8000802:	f003 030c 	and.w	r3, r3, #12
 8000806:	2b08      	cmp	r3, #8
 8000808:	d1f9      	bne.n	80007fe <SetSysClock+0xce>
  else
  { /* If HSE fails to start-up, the application will have wrong clock
         configuration. User can add here some code to deal with this error */
  }

}
 800080a:	bf00      	nop
 800080c:	370c      	adds	r7, #12
 800080e:	46bd      	mov	sp, r7
 8000810:	f85d 7b04 	ldr.w	r7, [sp], #4
 8000814:	4770      	bx	lr
 8000816:	bf00      	nop
 8000818:	40023800 	.word	0x40023800
 800081c:	40007000 	.word	0x40007000
 8000820:	07405a08 	.word	0x07405a08
 8000824:	40023c00 	.word	0x40023c00

08000828 <__libc_init_array>:
 8000828:	b570      	push	{r4, r5, r6, lr}
 800082a:	4e0d      	ldr	r6, [pc, #52]	; (8000860 <__libc_init_array+0x38>)
 800082c:	4c0d      	ldr	r4, [pc, #52]	; (8000864 <__libc_init_array+0x3c>)
 800082e:	1ba4      	subs	r4, r4, r6
 8000830:	10a4      	asrs	r4, r4, #2
 8000832:	2500      	movs	r5, #0
 8000834:	42a5      	cmp	r5, r4
 8000836:	d109      	bne.n	800084c <__libc_init_array+0x24>
 8000838:	4e0b      	ldr	r6, [pc, #44]	; (8000868 <__libc_init_array+0x40>)
 800083a:	4c0c      	ldr	r4, [pc, #48]	; (800086c <__libc_init_array+0x44>)
 800083c:	f000 f89e 	bl	800097c <_init>
 8000840:	1ba4      	subs	r4, r4, r6
 8000842:	10a4      	asrs	r4, r4, #2
 8000844:	2500      	movs	r5, #0
 8000846:	42a5      	cmp	r5, r4
 8000848:	d105      	bne.n	8000856 <__libc_init_array+0x2e>
 800084a:	bd70      	pop	{r4, r5, r6, pc}
 800084c:	f856 3025 	ldr.w	r3, [r6, r5, lsl #2]
 8000850:	4798      	blx	r3
 8000852:	3501      	adds	r5, #1
 8000854:	e7ee      	b.n	8000834 <__libc_init_array+0xc>
 8000856:	f856 3025 	ldr.w	r3, [r6, r5, lsl #2]
 800085a:	4798      	blx	r3
 800085c:	3501      	adds	r5, #1
 800085e:	e7f2      	b.n	8000846 <__libc_init_array+0x1e>
 8000860:	08000994 	.word	0x08000994
 8000864:	08000994 	.word	0x08000994
 8000868:	08000994 	.word	0x08000994
 800086c:	08000998 	.word	0x08000998

08000870 <malloc>:
 8000870:	4b02      	ldr	r3, [pc, #8]	; (800087c <malloc+0xc>)
 8000872:	4601      	mov	r1, r0
 8000874:	6818      	ldr	r0, [r3, #0]
 8000876:	f000 b803 	b.w	8000880 <_malloc_r>
 800087a:	bf00      	nop
 800087c:	20000004 	.word	0x20000004

08000880 <_malloc_r>:
 8000880:	b570      	push	{r4, r5, r6, lr}
 8000882:	1ccd      	adds	r5, r1, #3
 8000884:	f025 0503 	bic.w	r5, r5, #3
 8000888:	3508      	adds	r5, #8
 800088a:	2d0c      	cmp	r5, #12
 800088c:	bf38      	it	cc
 800088e:	250c      	movcc	r5, #12
 8000890:	2d00      	cmp	r5, #0
 8000892:	4606      	mov	r6, r0
 8000894:	db01      	blt.n	800089a <_malloc_r+0x1a>
 8000896:	42a9      	cmp	r1, r5
 8000898:	d903      	bls.n	80008a2 <_malloc_r+0x22>
 800089a:	230c      	movs	r3, #12
 800089c:	6033      	str	r3, [r6, #0]
 800089e:	2000      	movs	r0, #0
 80008a0:	bd70      	pop	{r4, r5, r6, pc}
 80008a2:	f000 f85b 	bl	800095c <__malloc_lock>
 80008a6:	4a23      	ldr	r2, [pc, #140]	; (8000934 <_malloc_r+0xb4>)
 80008a8:	6814      	ldr	r4, [r2, #0]
 80008aa:	4621      	mov	r1, r4
 80008ac:	b991      	cbnz	r1, 80008d4 <_malloc_r+0x54>
 80008ae:	4c22      	ldr	r4, [pc, #136]	; (8000938 <_malloc_r+0xb8>)
 80008b0:	6823      	ldr	r3, [r4, #0]
 80008b2:	b91b      	cbnz	r3, 80008bc <_malloc_r+0x3c>
 80008b4:	4630      	mov	r0, r6
 80008b6:	f000 f841 	bl	800093c <_sbrk_r>
 80008ba:	6020      	str	r0, [r4, #0]
 80008bc:	4629      	mov	r1, r5
 80008be:	4630      	mov	r0, r6
 80008c0:	f000 f83c 	bl	800093c <_sbrk_r>
 80008c4:	1c43      	adds	r3, r0, #1
 80008c6:	d126      	bne.n	8000916 <_malloc_r+0x96>
 80008c8:	230c      	movs	r3, #12
 80008ca:	6033      	str	r3, [r6, #0]
 80008cc:	4630      	mov	r0, r6
 80008ce:	f000 f846 	bl	800095e <__malloc_unlock>
 80008d2:	e7e4      	b.n	800089e <_malloc_r+0x1e>
 80008d4:	680b      	ldr	r3, [r1, #0]
 80008d6:	1b5b      	subs	r3, r3, r5
 80008d8:	d41a      	bmi.n	8000910 <_malloc_r+0x90>
 80008da:	2b0b      	cmp	r3, #11
 80008dc:	d90f      	bls.n	80008fe <_malloc_r+0x7e>
 80008de:	600b      	str	r3, [r1, #0]
 80008e0:	50cd      	str	r5, [r1, r3]
 80008e2:	18cc      	adds	r4, r1, r3
 80008e4:	4630      	mov	r0, r6
 80008e6:	f000 f83a 	bl	800095e <__malloc_unlock>
 80008ea:	f104 000b 	add.w	r0, r4, #11
 80008ee:	1d23      	adds	r3, r4, #4
 80008f0:	f020 0007 	bic.w	r0, r0, #7
 80008f4:	1ac3      	subs	r3, r0, r3
 80008f6:	d01b      	beq.n	8000930 <_malloc_r+0xb0>
 80008f8:	425a      	negs	r2, r3
 80008fa:	50e2      	str	r2, [r4, r3]
 80008fc:	bd70      	pop	{r4, r5, r6, pc}
 80008fe:	428c      	cmp	r4, r1
 8000900:	bf0d      	iteet	eq
 8000902:	6863      	ldreq	r3, [r4, #4]
 8000904:	684b      	ldrne	r3, [r1, #4]
 8000906:	6063      	strne	r3, [r4, #4]
 8000908:	6013      	streq	r3, [r2, #0]
 800090a:	bf18      	it	ne
 800090c:	460c      	movne	r4, r1
 800090e:	e7e9      	b.n	80008e4 <_malloc_r+0x64>
 8000910:	460c      	mov	r4, r1
 8000912:	6849      	ldr	r1, [r1, #4]
 8000914:	e7ca      	b.n	80008ac <_malloc_r+0x2c>
 8000916:	1cc4      	adds	r4, r0, #3
 8000918:	f024 0403 	bic.w	r4, r4, #3
 800091c:	42a0      	cmp	r0, r4
 800091e:	d005      	beq.n	800092c <_malloc_r+0xac>
 8000920:	1a21      	subs	r1, r4, r0
 8000922:	4630      	mov	r0, r6
 8000924:	f000 f80a 	bl	800093c <_sbrk_r>
 8000928:	3001      	adds	r0, #1
 800092a:	d0cd      	beq.n	80008c8 <_malloc_r+0x48>
 800092c:	6025      	str	r5, [r4, #0]
 800092e:	e7d9      	b.n	80008e4 <_malloc_r+0x64>
 8000930:	bd70      	pop	{r4, r5, r6, pc}
 8000932:	bf00      	nop
 8000934:	20000088 	.word	0x20000088
 8000938:	2000008c 	.word	0x2000008c

0800093c <_sbrk_r>:
 800093c:	b538      	push	{r3, r4, r5, lr}
 800093e:	4c06      	ldr	r4, [pc, #24]	; (8000958 <_sbrk_r+0x1c>)
 8000940:	2300      	movs	r3, #0
 8000942:	4605      	mov	r5, r0
 8000944:	4608      	mov	r0, r1
 8000946:	6023      	str	r3, [r4, #0]
 8000948:	f000 f80a 	bl	8000960 <_sbrk>
 800094c:	1c43      	adds	r3, r0, #1
 800094e:	d102      	bne.n	8000956 <_sbrk_r+0x1a>
 8000950:	6823      	ldr	r3, [r4, #0]
 8000952:	b103      	cbz	r3, 8000956 <_sbrk_r+0x1a>
 8000954:	602b      	str	r3, [r5, #0]
 8000956:	bd38      	pop	{r3, r4, r5, pc}
 8000958:	20000098 	.word	0x20000098

0800095c <__malloc_lock>:
 800095c:	4770      	bx	lr

0800095e <__malloc_unlock>:
 800095e:	4770      	bx	lr

08000960 <_sbrk>:
 8000960:	4b04      	ldr	r3, [pc, #16]	; (8000974 <_sbrk+0x14>)
 8000962:	6819      	ldr	r1, [r3, #0]
 8000964:	4602      	mov	r2, r0
 8000966:	b909      	cbnz	r1, 800096c <_sbrk+0xc>
 8000968:	4903      	ldr	r1, [pc, #12]	; (8000978 <_sbrk+0x18>)
 800096a:	6019      	str	r1, [r3, #0]
 800096c:	6818      	ldr	r0, [r3, #0]
 800096e:	4402      	add	r2, r0
 8000970:	601a      	str	r2, [r3, #0]
 8000972:	4770      	bx	lr
 8000974:	20000090 	.word	0x20000090
 8000978:	2000009c 	.word	0x2000009c

0800097c <_init>:
 800097c:	b5f8      	push	{r3, r4, r5, r6, r7, lr}
 800097e:	bf00      	nop
 8000980:	bcf8      	pop	{r3, r4, r5, r6, r7}
 8000982:	bc08      	pop	{r3}
 8000984:	469e      	mov	lr, r3
 8000986:	4770      	bx	lr

08000988 <_fini>:
 8000988:	b5f8      	push	{r3, r4, r5, r6, r7, lr}
 800098a:	bf00      	nop
 800098c:	bcf8      	pop	{r3, r4, r5, r6, r7}
 800098e:	bc08      	pop	{r3}
 8000990:	469e      	mov	lr, r3
 8000992:	4770      	bx	lr
